:0400000055EF00F0C8
:100008004C82FACF21F0FBCF22F0E9CF23F0EACFE0
:1000180024F0E1CF25F0E2CF26F0D9CF27F0DACFD0
:1000280028F0F3CF29F0F4CF2AF0F6CF2BF0F7CF52
:100038002CF0F8CF2DF0F5CF2EF0F2BC9DAC05D00A
:100048009EAC03D085EC06F00ED0F2BC7DA405D0A2
:100058007EA403D01CEC06F006D0F2BC9DA203D00F
:100068009EB27AEC06F02EC0F5FF2DC0F8FF2CC02A
:10007800F7FF2BC0F6FF2AC0F4FF29C0F3FF28C002
:10008800DAFF27C0D9FF26C0E2FF25C0E1FF24C060
:10009800EAFF23C0E9FF22C0FBFF21C0FAFF4C9210
:1000A8001100D6EF04F0F3D0000EB96E000E636EA7
:1000B8008B948C9A8B928B90010E4B6E1200010ED2
:1000C800B96E010E636E8C9A8B904450800A700F43
:1000D800D8B01200445065EC06F003EC05F044502B
:1000E800010DA00EF324D96E000EF420DA6EDF5055
:1000F800336E33502F6E306A94EC05F04450010D86
:10010800600EF324D96E000EF420DA6EDF50336EE1
:1001180033502F6E306A7CEC05F04450D8A404D0DC
:10012800040E4B6E3F0E446E44061200020EB96E6A
:10013800010E636E8B948B9003EC05F04450800A9B
:10014800600FD8B012004450800A700FD8A0120077
:10015800445065EC06F04450010DA00EF324D96E0E
:10016800000EF420DA6EDF50336E33502F6E306A93
:1001780094EC05F04450010D600EF324D96E000E86
:10018800F420DA6EDF50336E33502F6E306A7CEC19
:1001980005F0100E4418D8A402D0010E4B6E440688
:1001A8001200020EB96E020E636E8B948B9203ECF2
:1001B80005F04450800A500FD8B012004450800A0D
:1001C800600FD8A01200445065EC06F04450010DB1
:1001D800A00EF324D96E000EF420DA6EDF50336ED1
:1001E80033502F6E306A94EC05F04450010D600EC8
:1001F800F324D96E000EF420DA6EDF50336E3350DC
:100208002F6E306A7CEC05F0200E4418D8A402D07A
:10021800020E4B6E44061200010EB96E020E636E9A
:100228008C9A8B924450800A400FD8B012004450E8
:10023800800A500FD8A01200445065EC06F04450D4
:10024800010DA00EF324D96E000EF420DA6EDF50F3
:10025800336E33502F6E306A94EC05F04450010D24
:10026800600EF324D96E000EF420DA6EDF50336E80
:1002780033502F6E306A7CEC05F0300E4418D8A449
:1002880004D0000E4B6E030E4B6E440612004B500A
:10029800000AD8B409D7010AD8B411D7030AD8B4C8
:1002A80045D7010AD8B47DD7070AD8A41200B4D715
:1002B800E7D0000EB96E000E636E8B948C9A8B9209
:1002C8008B90010E4B6E1200010EB96E010E636E1B
:1002D8008C9A8B904450800A780FD8B0120003ECA7
:1002E80005F04450010D010EF324D96E000EF420E0
:1002F800DA6EDF50336E33502F6E306A94EC05F0AF
:100308004450010DE00EF324D96E000EF420DA6E8D
:10031800DF50336E33502F6E306A7CEC05F044505A
:10032800D8A404D0040E4B6E1F0E446E440612006F
:10033800020EB96E010E636E8B948B9003EC05F080
:100348004450800A700FD8B012004450800A780FC9
:10035800D8A012004450010D010EF324D96E000EEE
:10036800F420DA6EDF50336E33502F6E306A94EC1F
:1003780005F04450010DE00EF324D96E000EF42070
:10038800DA6EDF50336E33502F6E306A7CEC05F036
:10039800080E4418D8A402D0010E4B6E4406120071
:1003A800020EB96E020E636E8B948B9203EC05F00D
:1003B8004450800A680FD8B012004450800A700F69
:1003C800D8A012004450010D010EF324D96E000E7E
:1003D800F420DA6EDF50336E33502F6E306A94ECAF
:1003E80005F04450010DE00EF324D96E000EF42000
:1003F800DA6EDF50336E33502F6E306A7CEC05F0C6
:10040800100E4418D8A402D0020E4B6E44061200F7
:10041800010EB96E020E636E8C9A8B924450800A5C
:10042800600FD8B012004450800A680FD8A012009C
:100438004450010D010EF324D96E000EF420DA6E3B
:10044800DF50336E33502F6E306A94EC05F0445011
:10045800010DE00EF324D96E000EF420DA6EDF50A1
:10046800336E33502F6E306A7CEC05F0180E44184A
:10047800D8A404D0000E4B6E030E4B6E4406120037
:100488004B50000AD8B415D7010AD8B41DD7030AAF
:10049800D8B44ED7010AD8B483D7070AD8A4120013
:1004A800B7D7E7D0000EB96E000E636E8B948C9AA6
:1004B8008B928B90010E4B6E1200010EB96E010EDD
:1004C800636E8C9A8B904450800A780FD8B01200D3
:1004D80003EC05F04450010D010EF324D96E000E13
:1004E800F420DA6EDF50336E33502F6E306A94EC9E
:1004F80005F04450010DE00EF324D96E000EF420EF
:10050800DA6EDF50336E33502F6E306A7CEC05F0B4
:10051800070E4418D8A402D0020E4B6E442A1200CB
:10052800020EB96E010E636E8B948B904450800A54
:10053800700FD8B012004450800A780FD8A012006B
:1005480003EC05F04450010D010EF324D96E000EA2
:10055800F420DA6EDF50336E33502F6E306A94EC2D
:1005680005F04450010DE00EF324D96E000EF4207E
:10057800DA6EDF50336E33502F6E306A7CEC05F044
:100588000F0E4418D8A402D0030E4B6E442A120052
:10059800020EB96E020E636E8B948B924450800AE1
:1005A800680FD8B012004450800A700FD8A012000B
:1005B80003EC05F04450010D010EF324D96E000E32
:1005C800F420DA6EDF50336E33502F6E306A94ECBD
:1005D80005F04450010DE00EF324D96E000EF4200E
:1005E800DA6EDF50336E33502F6E306A7CEC05F0D4
:1005F800170E4418D8A402D0040E4B6E442A1200D9
:10060800010EB96E020E636E8C9A8B924450800A6A
:10061800600FD8B012004450800A680FD8A01200AA
:1006280003EC05F04450010D010EF324D96E000EC1
:10063800F420DA6EDF50336E33502F6E306A94EC4C
:1006480005F04450010DE00EF324D96E000EF4209D
:10065800DA6EDF50336E33502F6E306A7CEC05F063
:100668001F0E4418D8A403D0010E4B6E4468442AC8
:1006780012004B50000AD8B415D7010AD8B41DD7B8
:10068800030AD8B44DD7010AD8B482D7070AD8A428
:100698001200B6D7E5D0000EB96E000E636E8B94CB
:1006A8008C9A8B928B90010E4B6E1200010EB96ED4
:1006B800010E636E8C9A8B904450800A700FD8B0EC
:1006C800120003EC05F04450010DA00EF324D96E7E
:1006D800000EF420DA6EDF50336E33502F6E306A1E
:1006E80094EC05F04450010D600EF324D96E000E11
:1006F800F420DA6EDF50336E33502F6E306A7CECA4
:1007080005F00F0E4418D8A402D0020E4B6E442AEE
:100718001200020EB96E010E636E8B948B9003EC7F
:1007280005F04450800A600FD8B012004450800A87
:10073800700FD8A012004450010DA00EF324D96EFA
:10074800000EF420DA6EDF50336E33502F6E306AAD
:1007580094EC05F04450010D600EF324D96E000EA0
:10076800F420DA6EDF50336E33502F6E306A7CEC33
:1007780005F01F0E4418D8A402D0030E4B6E442A6D
:100788001200020EB96E020E636E8B948B9203EC0C
:1007980005F04450800A500FD8B012004450800A27
:1007A800600FD8A012004450010DA00EF324D96E9A
:1007B800000EF420DA6EDF50336E33502F6E306A3D
:1007C80094EC05F04450010D600EF324D96E000E30
:1007D800F420DA6EDF50336E33502F6E306A7CECC3
:1007E80005F02F0E4418D8A402D0040E4B6E442AEC
:1007F8001200010EB96E020E636E8C9A8B924450F1
:10080800800A400FD8B012004450800A500FD8A078
:1008180012004450010DA00EF324D96E000EF420EE
:10082800DA6EDF50336E33502F6E306A94EC05F079
:100838004450010D600EF324D96E000EF420DA6ED8
:10084800DF50336E33502F6E306A7CEC05F03F0E6C
:100858004418D8A403D0010E4B6E4468442A1200F1
:100868004B50000AD8B417D7010AD8B41FD7030AC7
:10087800D8B44FD7010AD8B484D7070AD8A412002D
:10088800B8D706121D2A353F49535B636A707579DC
:100898007C7E7E7C7975706A635B53493F352A1D7F
:1008A800120606121D2A353F49535B636A70757933
:1008B8007C7E7E7C7975706A635B53493F352A1D5F
:1008C80012067E7C7975706A635B53493F352A1D31
:1008D800120606121D2A353F49535B636A70757903
:1008E8007C7E7E7C7975706A635B53493F352A1D2F
:1008F800120606121D2A353F49535B636A707579E3
:100908007C7E0C22394D5E6C767D7D766C5E4D3931
:10091800220C0C22394D5E6C767D7D766C5E4D39ED
:10092800220C34503D5C35503E58D8B033D0465038
:10093800D8B42DD03B4A3C2A3650396E3A6A3B50DF
:10094800391823E13C503A18D8A41FD03804D8A449
:100958000AD0100E3718D8A403D04EEC03F00FD0ED
:1009680055EC02F00CD03850D8A409D0100E371826
:10097800D8A403D057EC00F002D05CEC01F03D4A5B
:100988003E2A000E3C6E000E3B6E000E466E000EB8
:10099800456E06D0010E456E000E3E6E000E3D6E91
:1009A800455012008A0EF66E080EF76E000EF86EAD
:1009B80000EE60F010EEA0F00900F5CFEEFFE55074
:1009C800E150FAE15A0EF66E0C0EF76E000EF86E54
:1009D80000EE01F010EE20F00900F5CFEEFFE55033
:1009E800E150FAE100EE3BF00C0EEE6AE806FDE19C
:1009F8004C904C92000EF86E00012EEF05F044501A
:100A0800010D010EF324D96E000EF420DA6E730E78
:100A1800DF640AD04450010D010EF324D96E000E94
:100A2800F420DA6E730EDF6E4450010DE00EF324ED
:100A3800D96E000EF420DA6E730EDF641200445093
:100A4800010DE00EF324D96E000EF420DA6E730E59
:100A5800DF6E1200ACEC05F06BEC06F0000E466E93
:100A68008A8CF28EF28C130E356E880E346E050E5B
:100A7800366E100E376E010E386E95EC04F00009D4
:100A8800D8B4F1D7130E356E880E346E050E366E57
:100A9800100E376E000E386E95EC04F00009D8A4DD
:100AA800E2D7F0D7000E8D6E000E8C6E000E896EA8
:100AB800000E8A6E000E8B6E070E966EEB0E926E0F
:100AC800BF0E936EB80E946EDF0E956E380E0F0142
:100AD8003A6F3E0E0F01396FDF0E0F013B6F030EA9
:100AE8000F013C6F2B0E0F01386F6168F19E1200E9
:100AF8002FC031F030C032F0D89032323132D89035
:100B0800323231323150676E2FC031F0030E311658
:100B1800313AF00E31166650CF0B3110666E120066
:100B28002FC031F030C032F0D89032323132D89004
:100B3800323231323150BE6E2FC031F0030E3116D1
:100B4800313AF00E3116BD50CF0B3110BD6E120088
:100B580083EC06F056EC05F05EEC06F0C1EC05F00F
:100B6800D5EC05F054EC06F03DEC06F0E7EC05F0AA
:100B78000BEC06F049EC06F01200010E0F014A6F6B
:100B8800450E0F014B6F000E0F014C6F7E947D8454
:100B98000E0E2F6E0D0E306E70EC06F07EEC06F029
:100BA80012003C0E666E000E646E800E656E030EBB
:100BB800636E140E676E000E686E0F014951E70BE5
:100BC8001009496F12003C0EBD6E000EB66E800E05
:100BD800B76E030EB96E140EBE6E000EBF6E0F0117
:100BE8004951FC0B0209496F1200010E466E47502D
:100BF8004810D8B4120001D812000500FA6E475008
:100C0800FD6E4850FE6EF850FF6EFA501200020E4C
:100C1800BA6E0C0EBB6E000EBC6E9E929D82100EBC
:100C28002F6E0D0E306E75EC06F081EC06F012009A
:100C38007E9449504A10D8B4120001D81200050019
:100C4800FA6E4950FD6E4A50FE6EF850FF6EFA502B
:100C580012007D766C5E4D39220C0C22394D5E6C8B
:100C6800767D7D766C5E4D39220C0C22394D5E6C9A
:100C7800767D010EC26E000EC16E050EC06E000EAE
:100C8800C36E000EC46E9D8C1200080EB86E900ED6
:100C9800AB6E240EAC6EA00EAF6E010EB06E1200DD
:100CA800000E0F01546F000E0F01556F000E0F015B
:100CB800566F1200700ED36E040ED26E000E9B6E2D
:100CC80012002F6E9EA8FED72FC0ADFF1200010E96
:100CD8004B6E000E446E12002FC049F030C04AF02F
:100CE80012002FC047F030C048F012009E92F9EC75
:100CF80005F012000F014A851200BA841200D09E36
:0A0D080012009E9C1200120012005F
:020000040020DA
:08000000FFFFFFFFFFFFFFFF00
:020000040030CA
:0E000000FF281F3CFF9F85FF0FC00FE00F4041
:00000001FF
