:0400000055EF00F0C8
:100008005082FACF21F0FBCF22F0E9CF23F0EACFDC
:1000180024F0E1CF25F0E2CF26F0D9CF27F0DACFD0
:1000280028F0F3CF29F0F4CF2AF0F6CF2BF0F7CF52
:100038002CF0F8CF2DF0F5CF2EF0F2BC9DAC05D00A
:100048009EAC03D01AEC05F00ED0F2BC7DA405D00E
:100058007EA403D0ACEC04F006D0F2BC9DA203D081
:100068009EB20FEC05F02EC0F5FF2DC0F8FF2CC096
:10007800F7FF2BC0F6FF2AC0F4FF29C0F3FF28C002
:10008800DAFF27C0D9FF26C0E2FF25C0E1FF24C060
:10009800EAFF23C0E9FF22C0FBFF21C0FAFF50920C
:1000A8001100B7EF03F0346E1DD1010EB96E010EC9
:1000B800636E8C9A8B9041BE06D0415003E1080EC6
:1000C800405CD8B01200010E4024D96E000E4120C9
:1000D800DA6EDF50336E33502F6E306A22EC04F044
:1000E800E00E4024D96E000E4120DA6EDF50336EE8
:1000F80033502F6E306A0AEC04F03404D8A40AD0C6
:10010800070E40184110D8A402D0020E4F6E404A84
:10011800412A120040504110D8A406D0040E4F6E58
:10012800000E416E1F0E406E4006D8A04106120018
:10013800020EB96E010E636E8B948B9041BE06D091
:10014800415003E1100E405CD8B0120041BE1200CD
:10015800415004E1080E405CD8A01200010E402472
:10016800D96E000E4120DA6EDF50336E33502F6E99
:10017800306A22EC04F0E00E4024D96E000E4120D3
:10018800DA6EDF50336E33502F6E306A0AEC04F0AB
:100198003404D8A40AD00F0E40184110D8A402D0B5
:1001A800030E4F6E404A412A1200080E40184110B3
:1001B800D8A402D0010E4F6E4006D8A04106120006
:1001C800020EB96E020E636E8B948B9241BE06D0FE
:1001D800415003E1180E405CD8B0120041BE120035
:1001E800415004E1100E405CD8A01200010E4024DA
:1001F800D96E000E4120DA6EDF50336E33502F6E09
:10020800306A22EC04F0E00E4024D96E000E412042
:10021800DA6EDF50336E33502F6E306A0AEC04F01A
:100228003404D8A40AD0170E40184110D8A402D01C
:10023800040E4F6E404A412A1200100E4018411019
:10024800D8A402D0020E4F6E4006D8A04106120074
:10025800010EB96E020E636E8C9A8B9241BE06D067
:1002680041504EE1200E405CD8B0120041BE120051
:10027800415004E1180E405CD8A01200010E402441
:10028800D96E000E4120DA6EDF50336E33502F6E78
:10029800306A22EC04F0E00E4024D96E000E4120B2
:1002A800DA6EDF50336E33502F6E306A0AEC04F08A
:1002B8003404D8A40CD01F0E40184110D8A404D080
:1002C800010E4F6E40684168404A412A1200180EDC
:1002D80040184110D8A402D0030E4F6E4006D8A093
:1002E800410612004F50010AD8B4DFD6030AD8B429
:1002F8001FD7010AD8B464D7070AD8A41200A8D710
:100308001200346E1DD1010EB96E010E636E8C9A07
:100318008B9041BE06D0415003E1100E405CD8B02E
:100328001200A00E4024D96E000E4120DA6EDF5074
:10033800336E33502F6E306A22EC04F0600E402486
:10034800D96E000E4120DA6EDF50336E33502F6EB7
:10035800306A0AEC04F03404D8A40AD00F0E40180E
:100368004110D8A402D0020E4F6E404A412A120012
:1003780040504110D8A406D0040E4F6E000E416EB6
:100388003F0E406E4006D8A041061200020EB96E1C
:10039800010E636E8B948B9041BE06D0415003E1F1
:1003A800200E405CD8B0120041BE1200415004E15A
:1003B800100E405CD8A01200A00E4024D96E000E8A
:1003C8004120DA6EDF50336E33502F6E306A22ECE4
:1003D80004F0600E4024D96E000E4120DA6EDF5022
:1003E800336E33502F6E306A0AEC04F03404D8A40C
:1003F8000AD01F0E40184110D8A402D0030E4F6E29
:10040800404A412A1200100E40184110D8A402D0C8
:10041800010E4F6E4006D8A041061200020EB96EBA
:10042800020E636E8B948B9241BE06D0415003E15D
:10043800300E405CD8B0120041BE1200415004E1B9
:10044800200E405CD8A01200A00E4024D96E000EE9
:100458004120DA6EDF50336E33502F6E306A22EC53
:1004680004F0600E4024D96E000E4120DA6EDF5091
:10047800336E33502F6E306A0AEC04F03404D8A47B
:100488000AD02F0E40184110D8A402D0040E4F6E87
:10049800404A412A1200200E40184110D8A402D028
:1004A800020E4F6E4006D8A041061200010EB96E2A
:1004B800020E636E8C9A8B9241BE06D041504EE17B
:1004C800400E405CD8B0120041BE1200415004E119
:1004D800300E405CD8A01200A00E4024D96E000E49
:1004E8004120DA6EDF50336E33502F6E306A22ECC3
:1004F80004F0600E4024D96E000E4120DA6EDF5001
:10050800336E33502F6E306A0AEC04F03404D8A4EA
:100518000CD03F0E40184110D8A404D0010E4F6EE5
:1005280040684168404A412A1200300E4018411084
:10053800D8A402D0030E4F6E4006D8A04106120080
:100548004F50010AD8B4DFD6030AD8B41FD7010A1E
:10055800D8B464D7070AD8A41200A8D71200061284
:100568001D2A353F49535B636A7075797C7E7E7CB2
:100578007975706A635B53493F352A1D1206061266
:100588001D2A353F49535B636A7075797C7E7E7C92
:100598007975706A635B53493F352A1D12067E7C64
:1005A8007975706A635B53493F352A1D1206061236
:1005B8001D2A353F49535B636A7075797C7E7E7C62
:1005C8007975706A635B53493F352A1D1206061216
:1005D8001D2A353F49535B636A7075797C7E0C220E
:1005E800394D5E6C767D7D766C5E4D39220C0C2221
:1005F800394D5E6C767D7D766C5E4D39220C01013D
:10060800076F080E01010519D8A41ED01E0E01019E
:10061800086F13D0000E0101016F010E006F08C1B1
:1006280002F1080E0101036F06C104F14BEC03F05F
:100638000009D8B4EFD701010807010108510101E9
:10064800075DD8B01200E6D7100E01010519D8A42D
:1006580012001E0E0101086F13D0000E0101016F78
:10066800010E006F08C102F1100E0101036F06C1EF
:1006780004F14BEC03F00009D8B4EFD701010807E7
:10068800010108510101075DD8B01200E6D7010148
:1006980000513E5C010101513F58D8B029D04A5061
:1006A800D8B423D03C4A3D2A01010251356E366A3E
:1006B8003C50351818E13D503618D8A414D0100E07
:1006C80001010319D8A405D00101045185EC01F0FA
:1006D80004D00101045157EC00F03E4A3F2A000EB5
:1006E8003D6E000E3C6E000E4A6E000E486E06D03F
:1006F800010E486E000E3F6E000E3E6E485012000E
:100708003AEC04F0F7EC04F0000E4A6E000E496E65
:100718008A8C0F0E376E190E3B6E000E3A6E100E55
:10072800386E010E396EF28EF28C4750D8A4FDD780
:10073800010E476E38C005F139C006F1375003EC99
:1007480003F03AC000F13BC001F137C002F138C0F4
:1007580003F139C004F14BEC03F00009D8B4F1D728
:10076800EEEC04F0E2D7660EF66E050EF76E000E9C
:10077800F86E00EE60F010EEA0F00900F5CFEEFF85
:10078800E550E150FAE17A0EF66E090EF76E000EAA
:10079800F86E00EE01F010EE20F00900F5CFEEFF44
:1007A800E550E150FAE100EE37F0140EEE6AE80683
:1007B800FDE150905092000EF86E000184EF03F0B6
:1007C800000E8D6E000E8C6E000E896E000E8A6E05
:1007D800000E8B6E070E966EEB0E926EBF0E936E2A
:1007E800B80E946EDF0E956E380E0F013A6F3E0EFE
:1007F8000F01396FDF0E0F013B6F030E0F013C6FC6
:100808002B0E0F01386F6168F19E12002FC031F076
:1008180030C032F0D89032323132D8903232313260
:100828003150676E2FC031F0030E3116313AF00E99
:1008380031166650CF0B3110666E12002FC031F0A2
:1008480030C032F0D89032323132D8903232313230
:100858003150BE6E2FC031F0030E3116313AF00E12
:100868003116BD50CF0B3110BD6E120018EC05F0DB
:10087800E4EC03F0FEEC04F04FEC04F077EC04F049
:10088800E4EC04F0CDEC04F089EC04F09BEC04F00B
:10089800D9EC04F01200010E0F014A6F450E0F014A
:1008A8004B6F000E0F014C6F7E947D84380E2F6EB7
:1008B8000A0E306E05EC05F013EC05F01200010E7F
:1008C8004A6E010E496E4B504C10D8B4120001D834
:1008D80012000500FA6E4B50FD6E4C50FE6EF8503B
:1008E800FF6EFA5012003C0E666E000E646E800EAB
:1008F800656E030E636E140E676E000E686E0F0150
:100908004951E70B1009496F12003C0EBD6E000EED
:10091800B66E800EB76E030EB96E140EBE6E000E64
:10092800BF6E0F014951FC0B0209496F1200020EFC
:10093800BA6E0C0EBB6E000EBC6E9E929D823A0E75
:100948002F6E0A0E306E0AEC05F016EC05F0120058
:100958007E944D504E10D8B4120001D812000500F4
:10096800FA6E4D50FD6E4E50FE6EF850FF6EFA5006
:1009780012007D766C5E4D39220C0C22394D5E6C6E
:10098800767D7D766C5E4D39220C0C22394D5E6C7D
:10099800767D010EC26E000EC16E050EC06E000E91
:1009A800C36E000EC46E9D8C1200080EB86E900EB9
:1009B800AB6E240EAC6EA00EAF6E010EB06E1200C0
:1009C800000E0F01546F000E0F01556F000E0F013E
:1009D800566F1200000EB96E000E636E8B948C9ADF
:1009E8008B928B901200010E4F6E000E416E000E1E
:1009F800406E1200700ED36E040ED26E000E9B6E07
:100A080012002FC04DF030C04EF012002FC04BF036
:100A180030C04CF012009E9263EC04F012000F01FB
:100A28004A851200BA841200D09E12009E9C1200C1
:040A38001200120096
:020000040020DA
:08000000FFFFFFFFFFFFFFFF00
:020000040030CA
:0E000000FF281F3CFF9F85FF0FC00FE00F4041
:00000001FF
