:0400000055EF00F0C8
:100008004A82FACF21F0FBCF22F0E9CF23F0EACFE2
:1000180024F0E1CF25F0E2CF26F0D9CF27F0DACFD0
:1000280028F0F3CF29F0F4CF2AF0F6CF2BF0F7CF52
:100038002CF0F8CF2DF0F5CF2EF0F2BC9DAC05D00A
:100048009EAC03D00EEC04F00ED0F2BC7DA405D01B
:100058007EA403D0A5EC03F006D0F2BC9DA203D089
:100068009EB203EC04F02EC0F5FF2DC0F8FF2CC0A3
:10007800F7FF2BC0F6FF2AC0F4FF29C0F3FF28C002
:10008800DAFF27C0D9FF26C0E2FF25C0E1FF24C060
:10009800EAFF23C0E9FF22C0FBFF21C0FAFF4A9212
:1000A800110077EF02F0EBD0000EB96E000E636E10
:1000B8008B948C9A8B928B90010E496E1200010ED4
:1000C800B96E010E636E8C9A8B904350800A700F44
:1000D800D8B012004350EEEC03F04350010DA00ECF
:1000E800F324D96E000EF420DA6EDF50336E3350ED
:1000F8002F6E306A09EC03F04350010D600EF324B3
:10010800D96E000EF420DA6EDF50336E33502F6E46
:10011800306AF1EC02F00F0E4318D8A402D0020E98
:10012800496E432A1200020EB96E010E636E8B945B
:100138008B904350800A600FD8B012004350800A59
:10014800700FD8A012004350EEEC03F04350010D9D
:10015800A00EF324D96E000EF420DA6EDF50336E51
:1001680033502F6E306A09EC03F04350010D600ED6
:10017800F324D96E000EF420DA6EDF50336E33505C
:100188002F6E306AF1EC02F01F0E4318D8A402D08B
:10019800030E496E432A1200020EB96E020E636EF8
:1001A8008B948B924350800A500FD8B01200435062
:1001B800800A600FD8A012004350EEEC03F04350C1
:1001C800010DA00EF324D96E000EF420DA6EDF5074
:1001D800336E33502F6E306A09EC03F04350010D33
:1001E800600EF324D96E000EF420DA6EDF50336E01
:1001F80033502F6E306AF1EC02F02F0E4318D8A45A
:1002080002D0040E496E432A1200010EB96E020E86
:10021800636E8C9A8B924350800A400FD8B01200BC
:100228004350800A500FD8A012004350EEEC03F060
:100238004350010DA00EF324D96E000EF420DA6E9F
:10024800DF50336E33502F6E306A09EC03F04350A1
:10025800010D600EF324D96E000EF420DA6EDF5023
:10026800336E33502F6E306AF1EC02F03F0E4318B4
:10027800D8A403D0000E496E4368432A120049509F
:10028800000AD8B411D7010AD8B419D7030AD8B4C8
:100298004AD7010AD8B480D7070AD8A41200B5D71C
:1002A800C1D0000EB96E000E636E8B948C9A8B923F
:1002B8008B90010E496E1200010EB96E010E636E2D
:1002C8008C9A8B904350800A780FD8B01200435014
:1002D800010D010EF324D96E000EF420DA6EDF5002
:1002E800336E33502F6E306A09EC03F04350010D22
:1002F800E00EF324D96E000EF420DA6EDF50336E70
:1003080033502F6E306AF1EC02F0070E4318D8A470
:1003180002D0020E496E432A1200020EB96E010E77
:10032800636E8B948B904350800A700FD8B0120084
:100338004350800A780FD8A012000F0E4318D8A493
:1003480002D0030E496E432A1200020EB96E020E45
:10035800636E8B948B924350800A680FD8B012005A
:100368004350800A700FD8A012004350010D010EAF
:10037800F324D96E000EF420DA6EDF50336E33505A
:100388002F6E306A09EC03F04350010DE00EF324A0
:10039800D96E000EF420DA6EDF50336E33502F6EB4
:1003A800306AF1EC02F0170E4318D8A402D0040EFC
:1003B800496E432A1200010EB96E020E636E8C9AC2
:1003C8008B924350800A600FD8B012004350800AC5
:1003D800680FD8A012004350010D010EF324D96E06
:1003E800000EF420DA6EDF50336E33502F6E306A11
:1003F80009EC03F04350010DE00EF324D96E000E12
:10040800F420DA6EDF50336E33502F6E306AF1EC21
:1004180002F01F0E4318D8A403D0000E496E43689B
:10042800432A12004950000AD8B43BD7010AD8B46D
:1004380043D7030AD8B471D7010AD8B486D7070AB4
:10044800D8A41200B8D70C243C536A7F93A6B8C826
:10045800D6E2ECF4FAFEFEFAF4ECE2D6C8B8A693BB
:100468007F6A533C240C0C243C536A7F93A6B8C87B
:10047800D6E2ECF4FAFEFEFAF4ECE2D6C8B8A6939B
:100488007F6A533C240CFEFAF4ECE2D6C8B8A69373
:100498007F6A533C240C0C243C536A7F93A6B8C84B
:1004A800D6E2ECF4FAFEFEFAF4ECE2D6C8B8A6936B
:1004B8007F6A533C240C0C243C536A7F93A6B8C82B
:1004C800D6E2ECF4FAFE18457199BCD8EDFAFAEDCB
:1004D800D8BC9971451818457199BCD8EDFAFAED50
:1004E800D8BC997145184E0EF66E040EF76E000EC4
:1004F800F86E00EE60F010EEA0F00900F5CFEEFF08
:10050800E550E150FAE16C0EF66E070EF76E000E3C
:10051800F86E00EE01F010EE20F00900F5CFEEFFC6
:10052800E550E150FAE100EE3AF00B0EEE6AE8060B
:10053800FDE14A904A92000EF86E000136EF03F092
:1005480034503C5C35503D58D8B012004450D8B4B3
:1005580012003A4A3B2A3650386E396A3A503818EF
:1005680013E13B503918D8A40FD0100E3718D8A46F
:1005780003D057EC00F002D054EC01F03C4A3D2A7D
:10058800000E3B6E000E3A6E000E446E1200000E16
:100598008D6E000E8C6E000E896E000E8A6E000E37
:1005A8008B6E070E966EEB0E926EBF0E936EB80EA4
:1005B800946EDF0E956E380E0F013A6F3E0E0F01E6
:1005C800396FDF0E0F013B6F030E0F013C6F2B0ECF
:1005D8000F01386F6168F19E12002FC031F030C0F2
:1005E80032F0D89032323132D89032323132315002
:1005F800676E2FC031F0030E3116313AF00E311606
:100608006650CF0B3110666E12002FC031F030C02B
:1006180032F0D89032323132D890323231323150D1
:10062800BE6E2FC031F0030E3116313AF00E31167E
:10063800BD50CF0B3110BD6E12000CEC04F0CBECAA
:1006480002F0E7EC03F04AEC03F05EEC03F0C6ECD2
:1006580003F0DDEC03F070EC03F094EC03F0D2EC63
:1006680003F0120021EC03F0F4EC03F0000E446EEA
:100678008A8CF28EF28C090E356EC40E346E080E1A
:10068800366E100E376EA4EC02F0F5D7010E0F018E
:100698004A6F3C0E0F014B6F000E0F014C6F7E949A
:1006A8007D84200E2F6E080E306EF9EC03F007ECF7
:1006B80004F012000C0E666E000E646E800E656EFD
:1006C800030E636E0C0E676E000E686E0F014951C3
:1006D800E70B1009496F12000C0EBD6E000EB66EC6
:1006E800800EB76E030EB96E0C0EBE6E000EBF6E96
:1006F8000F014951FC0B0209496F1200010E446EAB
:1007080045504610D8B4120001D812000500FA6E00
:100718004550FD6E4650FE6EF850FF6EFA501200BE
:10072800020EBA6E0C0EBB6E000EBC6E9E929D82BF
:10073800220E2F6E080E306EFEEC03F00AEC04F069
:1007480012007E9447504810D8B4120001D8120005
:100758000500FA6E4750FD6E4850FE6EF850FF6E69
:10076800FA501200FAEDD8BC9971451818457199DC
:10077800BCD8EDFAFAEDD8BC9971451818457199AD
:10078800BCD8EDFA010EC26E000EC16E050EC06E29
:10079800000EC36E000EC46E9D8C1200080EB86E5B
:1007A800900EAB6E240EAC6EA00EAF6E010EB06E46
:1007B8001200000E0F01546F000E0F01556F000E4E
:1007C8000F01566F1200700ED36E040ED26E000E1B
:1007D8009B6E12002F6E9EA8FED72FC0ADFF120091
:1007E800010E496E000E436E12002FC047F030C054
:1007F80048F012002FC045F030C046F012009E921B
:1008080082EC03F012000F014A851200BA8412002C
:0C081800D09E12009E9C120012001200E4
:020000040020DA
:08000000FFFFFFFFFFFFFFFF00
:020000040030CA
:0E000000FF281F3CFF9F85FF0FC00FE00F4041
:00000001FF
