:0400000055EF00F0C8
:100008004182FACF21F0FBCF22F0E9CF23F0EACFEB
:1000180024F0E1CF25F0E2CF26F0D9CF27F0DACFD0
:1000280028F0F3CF29F0F4CF2AF0F6CF2BF0F7CF52
:100038002CF0F8CF2DF0F5CF2EF0F2BC9DAC05D00A
:100048009EAC03D0E9EC02F00ED0F2BC7DA405D042
:100058007EA403D064EC02F006D0F2BC9DA203D0CB
:100068009EB295EC02F02EC0F5FF2DC0F8FF2CC013
:10007800F7FF2BC0F6FF2AC0F4FF29C0F3FF28C002
:10008800DAFF27C0D9FF26C0E2FF25C0E1FF24C060
:10009800EAFF23C0E9FF22C0FBFF21C0FAFF41921B
:1000A800110046EF01F0E0D0010EB96E010E636E4B
:1000B8008C9A8B903F50CDEC02F03F50800A780F1D
:1000C800D8B012003F50010D010EF324D96E000E76
:1000D800F420DA6EDF50336E33502F6E306ADCEC6A
:1000E80001F03F50010D600EF324D96E000EF4208C
:1000F800DA6EDF50336E33502F6E306AC4EC01F085
:10010800070E3F18D8A402D0010E3E6E3F2A1200F7
:10011800020EB96E010E636E8B948B903F50CDEC3E
:1001280002F03F50800A700FD8B012003F50800A8A
:10013800780FD8A012003F50010D010EF324D96E9C
:10014800000EF420DA6EDF50336E33502F6E306AB3
:10015800DCEC01F03F50010D600EF324D96E000E67
:10016800F420DA6EDF50336E33502F6E306AC4ECF1
:1001780001F00F0E3F18D8A402D0020E3E6E3F2A9F
:100188001200020EB96E020E636E8B948B923F5072
:10019800CDEC02F03F50800A680FD8B012003F50F3
:1001A800800A700FD8A012003F50010D010EF324F1
:1001B800D96E000EF420DA6EDF50336E33502F6E96
:1001C800306ADCEC01F03F50010D600EF324D96E6B
:1001D800000EF420DA6EDF50336E33502F6E306A23
:1001E800C4EC01F0170E3F18D8A402D0030E3E6EDF
:1001F8003F2A1200010EB96E020E636E8C9A8B9222
:100208003F50CDEC02F03F50800A600FD8B012008A
:100218003F50800A680FD8A012003F50010D010E10
:10022800F324D96E000EF420DA6EDF50336E3350AB
:100238002F6E306ADCEC01F03F50010D600EF324A4
:10024800D96E000EF420DA6EDF50336E33502F6E05
:10025800306AC4EC01F01F0E3F18D8A403D0000E7A
:100268003E6E3F683F2A12003E50000AD8B41CD7A1
:10027800010AD8B44DD7030AD8B483D7010AD8A441
:100288001200B8D70A0EF66E050EF76E000EF86E5D
:1002980000EE60F010EE20F00900F5CFEEFFE5501B
:1002A800E150FAE1EA0EF66E040EF76E000EF86EF3
:1002B80000EE01F010EE20F00900F5CFEEFFE5505A
:1002C800E150FAE1406A3F6A3E6A3D6A3C6A419001
:1002D8004192000EF86E000172EF01F0F4EC01F0AB
:1002E800D3EC02F08A8C000E376E000E366E000ECC
:1002F800356E000E346EF28EF28C35BE06D0F40EDA
:10030800345C010E3558D8B0F8D74050D8B4F5D77A
:10031800364A372A050E36183710D8A408D057ECB5
:1003280000F0344A352A000E376E000E366E000E85
:10033800406EE3D7000E8D6E000E8C6E000E896E37
:10034800000E8A6E000E8B6E070E966EEB0E926E86
:10035800BF0E936EB80E946EDF0E956E380E0F01B9
:100368003A6F3E0E0F01396FDF0E0F013B6F030E20
:100378000F013C6F2B0E0F01386F6168F19E120060
:100388002FC031F030C032F0D89032323132D890AC
:10039800323231323150676E2FC031F0030E3116D0
:1003A800313AF00E31166650CF0B3110666E1200DE
:1003B8002FC031F030C032F0D89032323132D8907C
:1003C800323231323150BE6E2FC031F0030E311649
:1003D800313AF00E3116BD50CF0B3110BD6E120000
:1003E800E7EC02F09EEC01F0C6EC02F009EC02F03A
:1003F8001DEC02F0BCEC02F0A5EC02F02FEC02F0D0
:1004080053EC02F0B1EC02F01200010E0F014A6F3A
:100418003C0E0F014B6F000E0F014C6F7E947D84D4
:10042800D60E2F6E050E306ED8EC02F0E2EC02F01C
:1004380012000C0E666E000E646E800E656E030E62
:10044800636E0C0E676E000E686E0F014951E70B64
:100458001009496F12000C0EBD6E000EB66E800EAC
:10046800B76E030EB96E0C0EBE6E000EBF6E0F0196
:100478004951FC0B0209496F1200010E406E3850B9
:100488003910D8B4120001D812000500FA6E38509D
:10049800FD6E3950FE6EF850FF6EFA501200020ED3
:1004A800BA6E120EBB6E000EBC6E9E929D82D80E66
:1004B8002F6E050E306EDDEC02F0E5EC02F0120056
:1004C8007E943A503B10D8B4120001D812000500AF
:1004D800FA6E3A50FD6E3B50FE6EF850FF6EFA50C1
:1004E8001200FAEDD8BC9971451818457199BCD815
:1004F800EDFAFAEDD8BC9971451818457199BCD830
:10050800EDFA18457199BCD8EDFAFAEDD8BC997195
:10051800451818457199BCD8EDFAFAEDD8BC99710F
:1005280045189E923C4A3D2A3D5004E1100E3C5C21
:10053800D8A0120041EC02F0000E3D6E000E3C6E99
:100548001200010EC26E000EC16E020EC06E000EC9
:10055800C36E000EC46E9D8C1200080EB86E900E0D
:10056800AB6E240EAC6EA00EAF6E010EB06E120014
:10057800000E0F01546F000E0F01556F000E0F0192
:10058800566F1200700ED36E040ED26E000E9B6E64
:1005980012002F6E9EA8FED72FC0ADFF1200000ECE
:1005A8003E6E000E3F6E12002FC03AF030C03BF096
:1005B80012002FC038F030C039F012000F014A8500
:1005C8001200BA841200D09E12009E9C12001200E3
:0205D80012000F
:020000040020DA
:08000000FFFFFFFFFFFFFFFF00
:020000040030CA
:0E000000FF281F3CFF9F85FF0FC00FE00F4041
:00000001FF
