:0400000055EF00F0C8
:100008004282FACF21F0FBCF22F0E9CF23F0EACFEA
:1000180024F0E1CF25F0E2CF26F0D9CF27F0DACFD0
:1000280028F0F3CF29F0F4CF2AF0F6CF2BF0F7CF52
:100038002CF0F8CF2DF0F5CF2EF0F2BC9DAC05D00A
:100048009EAC03D000EC03F00ED0F2BC7DA405D02A
:100058007EA403D073EC02F006D0F2BC9DA203D0BC
:100068009EB2A4EC02F02EC0F5FF2DC0F8FF2CC004
:10007800F7FF2BC0F6FF2AC0F4FF29C0F3FF28C002
:10008800DAFF27C0D9FF26C0E2FF25C0E1FF24C060
:10009800EAFF23C0E9FF22C0FBFF21C0FAFF42921A
:1000A800110054EF01F0EBD0000EB96E000E636E34
:1000B8008B948C9A8B928B90010E3A6E1200010EE3
:1000C800B96E010E636E8C9A8B903C50E9EC02F08D
:1000D8003C50800A780FD8B012003C50010D010E38
:1000E800F324D96E000EF420DA6EDF50336E3350ED
:1000F8002F6E306AEBEC01F03C50010D600EF324DA
:10010800D96E000EF420DA6EDF50336E33502F6E46
:10011800306AD3EC01F0070E3C18D8A402D0020EC6
:100128003A6E3C2A1200020EB96E010E636E8B9471
:100138008B903C50E9EC02F03C50800A700FD8B02C
:1001480012003C50800A780FD8A012003C50010DD4
:10015800010EF324D96E000EF420DA6EDF50336EF0
:1001680033502F6E306AEBEC01F03C50010D600EFD
:10017800F324D96E000EF420DA6EDF50336E33505C
:100188002F6E306AD3EC01F00F0E3C18D8A402D0C1
:10019800030E3A6E3C2A1200020EB96E020E636E0E
:1001A8008B948B923C50E9EC02F03C50800A680F2B
:1001B800D8B012003C50800A700FD8A012003C50F2
:1001C800010D010EF324D96E000EF420DA6EDF5013
:1001D800336E33502F6E306AEBEC01F03C50010D5A
:1001E800600EF324D96E000EF420DA6EDF50336E01
:1001F80033502F6E306AD3EC01F0170E3C18D8A498
:1002080002D0040E3A6E3C2A1200010EB96E020E9C
:10021800636E8C9A8B923C50E9EC02F03C50800A59
:10022800600FD8B012003C50800A680FD8A01200A6
:100238003C50010D010EF324D96E000EF420DA6E45
:10024800DF50336E33502F6E306AEBEC01F03C50C8
:10025800010D600EF324D96E000EF420DA6EDF5023
:10026800336E33502F6E306AD3EC01F01F0E3C18FA
:10027800D8A403D0000E3A6E3C683C2A12003A50CB
:10028800000AD8B411D7010AD8B419D7030AD8B4C8
:100298004AD7010AD8B480D7070AD8A41200B5D71C
:1002A800280EF66E050EF76E000EF86E00EE60F082
:1002B80010EE20F00900F5CFEEFFE550E150FAE12D
:1002C800080EF66E050EF76E000EF86E00EE01F0E1
:1002D80010EE20F00900F5CFEEFFE550E150FAE10D
:1002E80000EE34F00A0EEE6AE806FDE14290429212
:1002F800000EF86E000181EF01F003EC02F0B4EC9F
:1003080002F08A8C000E376E000E366E000E356EC7
:10031800000E346EF28EF28C35BE06D0F40E345CCC
:10032800010E3558D8B0F8D73D50D8B4F5D7364A6D
:10033800372A050E36183710D8A408D057EC00F025
:10034800344A352A000E376E000E366E000E3D6EAA
:10035800E3D7000E8D6E000E8C6E000E896E000EB7
:100368008A6E000E8B6E070E966EEB0E926EBF0EA7
:10037800936EB80E946EDF0E956E380E0F013A6FBD
:100388003E0E0F01396FDF0E0F013B6F030E0F0199
:100398003C6F2B0E0F01386F6168F19E12002FC061
:1003A80031F030C032F0D89032323132D890323217
:1003B80031323150676E2FC031F0030E3116313AA9
:1003C800F00E31166650CF0B3110666E12002FC03A
:1003D80031F030C032F0D89032323132D8903232E7
:1003E80031323150BE6E2FC031F0030E3116313A22
:1003F800F00E3116BD50CF0B3110BD6E1200FEEC61
:1004080002F0ADEC01F0E2EC02F018EC02F02CEC9A
:1004180002F0D8EC02F0C1EC02F03EEC02F062EC23
:1004280002F0CDEC02F01200010E0F014A6F3C0EF3
:100438000F014B6F000E0F014C6F7E947D84040EEC
:100448002F6E060E306EEFEC02F0F9EC02F012009F
:100458000C0E666E000E646E800E656E030E636E83
:100468000C0E676E000E686E0F014951E70B1009FC
:10047800496F12000C0EBD6E000EB66E800EB76E80
:10048800030EB96E0C0EBE6E000EBF6E0F01495101
:10049800FC0B0209496F1200010E3D6E3E503F10E1
:1004A800D8B4120001D812000500FA6E3E50FD6E55
:1004B8003F50FE6EF850FF6EFA501200020EBA6EF0
:1004C800120EBB6E000EBC6E9E929D82060E2F6EA3
:1004D800060E306EF4EC02F0FCEC02F012007E9492
:1004E80040504110D8B4120001D812000500FA6E2D
:1004F8004050FD6E4150FE6EF850FF6EFA501200EB
:10050800FAEDD8BC9971451818457199BCD8EDFA1F
:10051800FAEDD8BC9971451818457199BCD8EDFA0F
:1005280018457199BCD8EDFAFAEDD8BC99714518FF
:1005380018457199BCD8EDFAFAEDD8BC99714518EF
:100548009E92384A392A395004E1100E385CD8A0F6
:10055800120050EC02F0000E396E000E386E1200D8
:100568003B04D8A405D0010E3A6E000E3C6E120072
:10057800040E3A6E1F0E3C6E1200010EC26E000E83
:10058800C16E020EC06E000EC36E000EC46E9D8C4E
:100598001200080EB86E900EAB6E240EAC6EA00E54
:1005A800AF6E010EB06E1200000E0F01546F000EF8
:1005B8000F01556F000E0F01566F1200700ED36EAB
:1005C800040ED26E000E9B6E12002F6E9EA8FED7F0
:1005D8002FC0ADFF12002FC040F030C041F0120014
:1005E8002FC03EF030C03FF012000F014A851200C4
:1005F800BA841200D09E12009E9C120012001200B3
:020000040020DA
:08000000FFFFFFFFFFFFFFFF00
:020000040030CA
:0E000000FF281F3CFF9F85FF0FC00FE00F4041
:00000001FF
