:0400000055EF00F0C8
:100008002782FACF01F0FBCF02F0E9CF03F0EACF65
:1000180004F0E1CF05F0E2CF06F0D9CF07F0DACF50
:1000280008F0F3CF09F0F4CF0AF0F6CF0BF0F7CFD2
:100038000CF0F8CF0DF0F5CF0EF0F2BC9DAC05D06A
:100048009EAC03D010EC03F00ED0F2BC7DA405D01A
:100058007EA403D09DEC02F006D0F2BC9DA203D092
:100068009EB2BEEC02F00EC0F5FF0DC0F8FF0CC04A
:10007800F7FF0BC0F6FF0AC0F4FF09C0F3FF08C082
:10008800DAFF07C0D9FF06C0E2FF05C0E1FF04C0E0
:10009800EAFF03C0E9FF02C0FBFF01C0FAFF279295
:1000A8001100E0EF01F0EBD0000EB96E000E636EA8
:1000B8008B948C9A8B928B90010E266E1200010EF7
:1000C800B96E010E636E8C9A8B902050800A700F67
:1000D800D8B012002050F4EC02F02050010DA00E10
:1000E800F324D96E000EF420DA6EDF50136E13502D
:1000F8000F6E106A15EC02F02050010D600EF3240B
:10010800D96E000EF420DA6EDF50136E13500F6EA6
:10011800106AFDEC01F00F0E2018D8A402D0020ED0
:10012800266E202A1200020EB96E010E636E8B94A1
:100138008B902050800A600FD8B012002050800A9F
:10014800700FD8A012002050F4EC02F02050010DDE
:10015800A00EF324D96E000EF420DA6EDF50136E71
:1001680013500F6E106A15EC02F02050010D600E4E
:10017800F324D96E000EF420DA6EDF50136E13509C
:100188000F6E106AFDEC01F01F0E2018D8A402D0E3
:10019800030E266E202A1200020EB96E020E636E3E
:1001A8008B948B922050800A500FD8B012002050A8
:1001B800800A600FD8A012002050F4EC02F0205002
:1001C800010DA00EF324D96E000EF420DA6EDF5074
:1001D800136E13500F6E106A15EC02F02050010DCB
:1001E800600EF324D96E000EF420DA6EDF50136E21
:1001F80013500F6E106AFDEC01F02F0E2018D8A4D2
:1002080002D0040E266E202A1200010EB96E020ECC
:10021800636E8C9A8B922050800A400FD8B01200DF
:100228002050800A500FD8A012002050F4EC02F0A1
:100238002050010DA00EF324D96E000EF420DA6EC2
:10024800DF50136E13500F6E106A15EC02F0205039
:10025800010D600EF324D96E000EF420DA6EDF5023
:10026800136E13500F6E106AFDEC01F03F0E20184C
:10027800D8A403D0000E266E2068202A120026502B
:10028800000AD8B411D7010AD8B419D7030AD8B4C8
:100298004AD7010AD8B480D7070AD8A41200B5D71C
:1002A8000C243C536A7F93A6B8C8D6E2ECF4FAFE55
:1002B800FEFAF4ECE2D6C8B8A6937F6A533C240C45
:1002C8000C243C536A7F93A6B8C8D6E2ECF4FAFE35
:1002D800FEFAF4ECE2D6C8B8A6937F6A533C240C25
:1002E800FEFAF4ECE2D6C8B8A6937F6A533C240C15
:1002F8000C243C536A7F93A6B8C8D6E2ECF4FAFE05
:10030800FEFAF4ECE2D6C8B8A6937F6A533C240CF4
:100318000C243C536A7F93A6B8C8D6E2ECF4FAFEE4
:1003280014501B5C15501C58D8B0120014501B5C9C
:1003380015501C58D8B012002150D8B41200194AD0
:100348001A2A1650176E186A195017180CE11A5005
:100358001818D8A408D057EC00F01B4A1C2A000E25
:100368001A6E000E196E000E216E1200000E8D6EB0
:10037800000E8C6E000E896E000E8A6E000E8B6E5B
:10038800070E966EEB0E926EBF0E936EB80E946EBD
:10039800DF0E956E380E0F013A6F3E0E0F01396F62
:1003A800DF0E0F013B6F030E0F013C6F2B0E0F0189
:1003B800386F6168F19E1200A80EF66E020EF76E95
:1003C800000EF86E00EE60F010EE80F00900F5CF38
:1003D800EEFFE550E150FAE100EE19F0090EEE6A81
:1003E800E806FDE127902792000EF86E0001AEEFB7
:1003F80002F00FC011F010C012F0D8901232113272
:10040800D890123211321150676E0FC011F0030EDE
:100418001116113AF00E11166650CF0B1110666EB8
:1004280012000FC011F010C012F0D8901232113221
:10043800D890123211321150BE6E0FC011F0030E57
:100448001116113AF00E1116BD50CF0B1110BD6EDA
:1004580012000EEC03F0BAEC01F0EDEC02F042EC05
:1004680002F056EC02F0E3EC02F0CCEC02F068EC9F
:1004780002F08CEC02F0D8EC02F01200010E0F0131
:100488004A6F3C0E0F014B6F000E0F014C6F7E94AC
:100498007D84240E0F6E060E106EFFEC02F009EC40
:1004A80003F012000C0E666E000E646E800E656E10
:1004B800030E636E0C0E676E000E686E0F014951D5
:1004C800E70B1009496F12000C0EBD6E000EB66ED8
:1004D800800EB76E030EB96E0C0EBE6E000EBF6EA8
:1004E8000F014951FC0B0209496F1200010E216EE0
:1004F80022502310D8B4120001D812000500FA6E59
:100508002250FD6E2350FE6EF850FF6EFA50120016
:10051800020EBA6E120EBB6E000EBC6E9E929D82CB
:10052800260E0F6E060E106E04EC03F00CEC03F0B2
:1005380012007E9424502510D8B4120001D812005D
:100548000500FA6E2450FD6E2550FE6EF850FF6EC1
:10055800FA5012002DEC02F0FAEC02F08A8CF28EBE
:10056800F28C050E156E780E146E010E166E94EC54
:1005780001F0F7D79E921D4A1E2A1D501E10D8B4AE
:1005880012007AEC02F0000E1E6E000E1D6E1200B4
:10059800010EC26E000EC16E020EC06E000EC36E5A
:1005A800000EC46E9D8C1200080EB86E900EAB6ED5
:1005B800240EAC6EA00EAF6E010EB06E1200000ECF
:1005C8000F01546F000E0F01556F000E0F01566F8B
:1005D8001200700ED36E040ED26E000E9B6E1200C7
:1005E8000F6E9EA8FED70FC0ADFF1200010E266E3B
:1005F800000E206E12000FC024F010C025F012006B
:100608000FC022F010C023F012000F014A8512001B
:10061800BA841200D09E12009E9C12001200120092
:020000040020DA
:08000000FFFFFFFFFFFFFFFF00
:020000040030CA
:0E000000FF281F3CFF9F85FF0FC00FE00F4041
:00000001FF
