:0400000055EF00F0C8
:100008004D82FACF21F0FBCF22F0E9CF23F0EACFDF
:1000180024F0E1CF25F0E2CF26F0D9CF27F0DACFD0
:1000280028F0F3CF29F0F4CF2AF0F6CF2BF0F7CF52
:100038002CF0F8CF2DF0F5CF2EF0F2BC9DAC05D00A
:100048009EAC03D0A2EC06F00ED0F2BC7DA405D085
:100058007EA403D022EC06F006D0F2BC9DA203D009
:100068009EB297EC06F02EC0F5FF2DC0F8FF2CC00D
:10007800F7FF2BC0F6FF2AC0F4FF29C0F3FF28C002
:10008800DAFF27C0D9FF26C0E2FF25C0E1FF24C060
:10009800EAFF23C0E9FF22C0FBFF21C0FAFF4D920F
:1000A800110002EF05F0F3D0000EB96E000E636E7A
:1000B8008B948C9A8B928B90010E4C6E1200010ED1
:1000C800B96E010E636E8C9A8B904450800A700F43
:1000D800D8B01200445082EC06F02FEC05F04450E2
:1000E800010DA00EF324D96E000EF420DA6EDF5055
:1000F800336E33502F6E306A98EC05F04450010D82
:10010800600EF324D96E000EF420DA6EDF50336EE1
:1001180033502F6E306A80EC05F04450D8A404D0D8
:10012800040E4C6E3F0E446E44061200020EB96E69
:10013800010E636E8B948B902FEC05F04450800A6F
:10014800600FD8B012004450800A700FD8A0120077
:10015800445082EC06F04450010DA00EF324D96EF1
:10016800000EF420DA6EDF50336E33502F6E306A93
:1001780098EC05F04450010D600EF324D96E000E82
:10018800F420DA6EDF50336E33502F6E306A80EC15
:1001980005F0100E4418D8A402D0010E4C6E440687
:1001A8001200020EB96E020E636E8B948B922FECC6
:1001B80005F04450800A500FD8B012004450800A0D
:1001C800600FD8A01200445082EC06F04450010D94
:1001D800A00EF324D96E000EF420DA6EDF50336ED1
:1001E80033502F6E306A98EC05F04450010D600EC4
:1001F800F324D96E000EF420DA6EDF50336E3350DC
:100208002F6E306A80EC05F0200E4418D8A402D076
:10021800020E4C6E44061200010EB96E020E636E99
:100228008C9A8B924450800A400FD8B012004450E8
:10023800800A500FD8A01200445082EC06F04450B7
:10024800010DA00EF324D96E000EF420DA6EDF50F3
:10025800336E33502F6E306A98EC05F04450010D20
:10026800600EF324D96E000EF420DA6EDF50336E80
:1002780033502F6E306A80EC05F0300E4418D8A445
:1002880004D0000E4C6E030E4C6E440612004C5007
:10029800000AD8B409D7010AD8B411D7030AD8B4C8
:1002A80045D7010AD8B47DD7070AD8A41200B4D715
:1002B800E5D0000EB96E000E636E8B948C9A8B920B
:1002C8008B90010E4C6E1200010EB96E010E636E1A
:1002D8008C9A8B904450800A700FD8B012002FEC83
:1002E80005F04450010DA00EF324D96E000EF42041
:1002F800DA6EDF50336E33502F6E306A98EC05F0AB
:100308004450010D600EF324D96E000EF420DA6E0D
:10031800DF50336E33502F6E306A80EC05F00F0ECD
:100328004418D8A402D0020E4C6E442A1200020EC1
:10033800B96E010E636E8B948B902FEC05F04450D0
:10034800800A600FD8B012004450800A700FD8A0FD
:1003580012004450010DA00EF324D96E000EF420B3
:10036800DA6EDF50336E33502F6E306A98EC05F03A
:100378004450010D600EF324D96E000EF420DA6E9D
:10038800DF50336E33502F6E306A80EC05F01F0E4D
:100398004418D8A402D0030E4C6E442A1200020E50
:1003A800B96E020E636E8B948B922FEC05F044505D
:1003B800800A500FD8B012004450800A600FD8A0AD
:1003C80012004450010DA00EF324D96E000EF42043
:1003D800DA6EDF50336E33502F6E306A98EC05F0CA
:1003E8004450010D600EF324D96E000EF420DA6E2D
:1003F800DF50336E33502F6E306A80EC05F02F0ECD
:100408004418D8A402D0040E4C6E442A1200010EDF
:10041800B96E020E636E8C9A8B924450800A400F1C
:10042800D8B012004450800A500FD8A0120044508F
:10043800010DA00EF324D96E000EF420DA6EDF5001
:10044800336E33502F6E306A98EC05F04450010D2E
:10045800600EF324D96E000EF420DA6EDF50336E8E
:1004680033502F6E306A80EC05F03F0E4418D8A444
:1004780003D0010E4C6E4468442A12004C50000A06
:10048800D8B417D7010AD8B41FD7030AD8B44FD79E
:10049800010AD8B484D7070AD8A41200B8D7E1D083
:1004A800000EB96E000E636E8B948C9A8B928B90B3
:1004B800010E4C6E1200010EB96E010E636E8C9A1D
:1004C8008B904450800A780FD8B012004450010D28
:1004D800010EF324D96E000EF420DA6EDF50336E6D
:1004E80033502F6E306A98EC05F04450010DE00E41
:1004F800F324D96E000EF420DA6EDF50336E3350D9
:100508002F6E306A80EC05F04450D8A404D0040E55
:100518004C6E1F0E446E44061200020EB96E010E98
:10052800636E8B948B904450800A700FD8B0120081
:100538004450800A780FD8A012004450010D010ED3
:10054800F324D96E000EF420DA6EDF50336E335088
:100558002F6E306A98EC05F04450010DE00EF3243C
:10056800D96E000EF420DA6EDF50336E33502F6EE2
:10057800306A80EC05F0080E4418D8A402D0010EA9
:100588004C6E44061200020EB96E020E636E8B9416
:100598008B924450800A680FD8B012004450800AE9
:1005A800700FD8A012004450010D010EF324D96E2B
:1005B800000EF420DA6EDF50336E33502F6E306A3F
:1005C80098EC05F04450010DE00EF324D96E000EAE
:1005D800F420DA6EDF50336E33502F6E306A80ECC1
:1005E80005F0100E4418D8A402D0020E4C6E440632
:1005F8001200010EB96E020E636E8C9A8B924450F3
:10060800800A600FD8B012004450800A680FD8A042
:1006180012004450010D010EF324D96E000EF4208F
:10062800DA6EDF50336E33502F6E306A98EC05F077
:100638004450010DE00EF324D96E000EF420DA6E5A
:10064800DF50336E33502F6E306A80EC05F0180E91
:100658004418D8A404D0000E4C6E030E4C6E440609
:1006680012004C50000AD8B41BD7010AD8B423D7BB
:10067800030AD8B452D7010AD8B485D7070AD8A430
:100688001200B7D7DFD0000EB96E000E636E8B94E0
:100698008C9A8B928B90010E4C6E1200010EB96EE3
:1006A800010E636E8C9A8B904450800A780FD8B0F4
:1006B80012004450010D010EF324D96E000EF420EF
:1006C800DA6EDF50336E33502F6E306A98EC05F0D7
:1006D8004450010DE00EF324D96E000EF420DA6EBA
:1006E800DF50336E33502F6E306A80EC05F0070E02
:1006F8004418D8A402D0020E4C6E442A1200020EEE
:10070800B96E010E636E8B948B904450800A700F03
:10071800D8B012004450800A780FD8A01200445074
:10072800010D010EF324D96E000EF420DA6EDF50AD
:10073800336E33502F6E306A98EC05F04450010D3B
:10074800E00EF324D96E000EF420DA6EDF50336E1B
:1007580033502F6E306A80EC05F00F0E4418D8A481
:1007680002D0030E4C6E442A1200020EB96E020E1D
:10077800636E8B948B924450800A680FD8B0120035
:100788004450800A700FD8A012004450010D010E89
:10079800F324D96E000EF420DA6EDF50336E335036
:1007A8002F6E306A98EC05F04450010DE00EF324EA
:1007B800D96E000EF420DA6EDF50336E33502F6E90
:1007C800306A80EC05F0170E4418D8A402D0040E45
:1007D8004C6E442A1200010EB96E020E636E8C9A9A
:1007E8008B924450800A600FD8B012004450800A9F
:1007F800680FD8A012004450010D010EF324D96EE1
:10080800000EF420DA6EDF50336E33502F6E306AEC
:1008180098EC05F04450010DE00EF324D96E000E5B
:10082800F420DA6EDF50336E33502F6E306A80EC6E
:1008380005F01F0E4418D8A403D0010E4C6E44686E
:10084800442A12004C50000AD8B41DD7010AD8B463
:1008580025D7030AD8B453D7010AD8B486D7070ACC
:10086800D8A41200B8D706121D2A353F49535B6336
:100878006A7075797C7E7E7C7975706A635B534992
:100888003F352A1D120606121D2A353F49535B6360
:100898006A7075797C7E7E7C7975706A635B534972
:1008A8003F352A1D12067E7C7975706A635B534951
:1008B8003F352A1D120606121D2A353F49535B6330
:1008C8006A7075797C7E7E7C7975706A635B534942
:1008D8003F352A1D120606121D2A353F49535B6310
:1008E8006A7075797C7E0C22394D5E6C767D7D76DA
:1008F8006C5E4D39220C0C22394D5E6C767D7D760E
:100908006C5E4D39220C34503D5C35503E58D8B0A1
:1009180033D04750D8B42DD03B4A3C2A3650396E94
:100928003A6A3B50391823E13C503A18D8A41FD0F2
:100938003804D8A40AD0100E3718D8A403D05CEC19
:1009480001F00FD046EC03F00CD03850D8A409D0F1
:10095800100E3718D8A403D057EC00F002D053EC8F
:1009680002F03D4A3E2A000E3C6E000E3B6E000E21
:10097800476E000E456E06D0010E456E000E3E6EA7
:10098800000E3D6E45501200B0EC05F088EC06F004
:10099800000E476E000E466E8A8CF28EF28C070EA1
:1009A800356ED00E346E030E366E080E376E010E9D
:1009B800386E87EC04F00009D8B4F1D772EC06F071
:1009C8004B0E306E1E0E2F6E43EC06F0070E356E82
:1009D800D00E346E030E366E080E376E000E386E6B
:1009E80087EC04F00009D8B4F1D772EC06F04B0E8E
:1009F800306E1E0E2F6E43EC06F0D1D76E0EF66EDB
:100A0800080EF76E000EF86E00EE60F010EEA0F023
:100A18000900F5CFEEFFE550E150FAE1660EF66EFB
:100A28000C0EF76E000EF86E00EE01F010EE20F0DE
:100A38000900F5CFEEFFE550E150FAE100EE3BF09A
:100A48000D0EEE6AE806FDE14D904D92000EF86E2F
:100A58000001C8EF04F04450010D010EF324D96ED3
:100A6800000EF420DA6E730EDF640AD04450010DD4
:100A7800010EF324D96E000EF420DA6E730EDF6EC9
:100A88004450010DE00EF324D96E000EF420DA6E06
:100A9800730EDF6412004450010DE00EF324D96E8A
:100AA800000EF420DA6E730EDF6E1200000E8D6EEB
:100AB800000E8C6E000E896E000E8A6E000E8B6E14
:100AC800070E966EEB0E926EBF0E936EB80E946E76
:100AD800DF0E956E380E0F013A6F3E0E0F01396F1B
:100AE800DF0E0F013B6F030E0F013C6F2B0E0F0142
:100AF800386F6168F19E12002FC031F030C032F0BB
:100B0800D89032323132D890323231323150676E29
:100B18002FC031F0030E3116313AF00E31166650FF
:100B2800CF0B3110666E12002FC031F030C032F09A
:100B3800D89032323132D890323231323150BE6EA2
:100B48002FC031F0030E3116313AF00E3116BD5078
:100B5800CF0B3110BD6E1200A0EC06F05AEC05F078
:100B68007BEC06F0C5EC05F0EDEC05F068EC06F062
:100B780051EC06F0FFEC05F011EC06F05DEC06F028
:100B88001200010E0F014A6F450E0F014B6F000E48
:100B98000F014C6F7E947D84480E2F6E0D0E306EC3
:100BA8008DEC06F09BEC06F01200010E476E010E6C
:100BB800466E48504910D8B4120001D812000500FA
:100BC800FA6E4850FD6E4950FE6EF850FF6EFA50AE
:100BD80012003C0E666E000E646E800E656E030E8B
:100BE800636E140E676E000E686E0F014951E70BB5
:100BF8001009496F12003C0EBD6E000EB66E800ED5
:100C0800B76E030EB96E140EBE6E000EBF6E0F01E6
:100C18004951FC0B0209496F1200020EBA6E0C0E04
:100C2800BB6E000EBC6E9E929D824A0E2F6E0D0EFC
:100C3800306E92EC06F09EEC06F012007E944A505C
:100C48004B10D8B4120001D812000500FA6E4A50B1
:100C5800FD6E4B50FE6EF850FF6EFA5012007D7616
:100C68006C5E4D39220C0C22394D5E6C767D7D769A
:100C78006C5E4D39220C0C22394D5E6C767D06D0A7
:100C88004650D8B405D02F06D8A03006000E466EC0
:100C98002F503010D8B41200F3D7010EC26E000ED8
:100CA800C16E050EC06E000EC36E000EC46E9D8C24
:100CB8001200080EB86E900EAB6E240EAC6EA00E2D
:100CC800AF6E010EB06E1200000E0F01546F000ED1
:100CD8000F01556F000E0F01566F1200000EB96E0E
:100CE800000E636E8B948C9A8B928B901200700E10
:100CF800D36E040ED26E000E9B6E12002F6E9EA84D
:100D0800FED72FC0ADFF1200010E4C6E000E446ED0
:100D180012002FC04AF030C04BF012002FC048F02C
:100D280030C049F012009E92D9EC05F012000F0174
:100D38004A851200BA841200D09E12009E9C1200AE
:040D48001200120083
:020000040020DA
:08000000FFFFFFFFFFFFFFFF00
:020000040030CA
:0E000000FF281F3CFF9F85FF0FC00FE00F4041
:00000001FF
