:0400000055EF00F0C8
:100008004F82FACF21F0FBCF22F0E9CF23F0EACFDD
:1000180024F0E1CF25F0E2CF26F0D9CF27F0DACFD0
:1000280028F0F3CF29F0F4CF2AF0F6CF2BF0F7CF52
:100038002CF0F8CF2DF0F5CF2EF0F2BC9DAC05D00A
:100048009EAC03D0E5EC04F00ED0F2BC7DA405D044
:100058007EA403D069EC04F006D0F2BC9DA203D0C4
:100068009EB2DAEC04F02EC0F5FF2DC0F8FF2CC0CC
:10007800F7FF2BC0F6FF2AC0F4FF29C0F3FF28C002
:10008800DAFF27C0D9FF26C0E2FF25C0E1FF24C060
:10009800EAFF23C0E9FF22C0FBFF21C0FAFF4F920D
:1000A800110074EF03F0346E1DD1010EB96E010E0C
:1000B800636E8C9A8B9041BE06D0415003E1080EC6
:1000C800405CD8B01200010E4024D96E000E4120C9
:1000D800DA6EDF50336E33502F6E306ADFEC03F088
:1000E800E00E4024D96E000E4120DA6EDF50336EE8
:1000F80033502F6E306AC7EC03F03404D8A40AD00A
:10010800070E40184110D8A402D0020E4E6E404A85
:10011800412A120040504110D8A406D0040E4E6E59
:10012800000E416E1F0E406E4006D8A04106120018
:10013800020EB96E010E636E8B948B9041BE06D091
:10014800415003E1100E405CD8B0120041BE1200CD
:10015800415004E1080E405CD8A01200010E402472
:10016800D96E000E4120DA6EDF50336E33502F6E99
:10017800306ADFEC03F0E00E4024D96E000E412017
:10018800DA6EDF50336E33502F6E306AC7EC03F0EF
:100198003404D8A40AD00F0E40184110D8A402D0B5
:1001A800030E4E6E404A412A1200080E40184110B4
:1001B800D8A402D0010E4E6E4006D8A04106120007
:1001C800020EB96E020E636E8B948B9241BE06D0FE
:1001D800415003E1180E405CD8B0120041BE120035
:1001E800415004E1100E405CD8A01200010E4024DA
:1001F800D96E000E4120DA6EDF50336E33502F6E09
:10020800306ADFEC03F0E00E4024D96E000E412086
:10021800DA6EDF50336E33502F6E306AC7EC03F05E
:100228003404D8A40AD0170E40184110D8A402D01C
:10023800040E4E6E404A412A1200100E401841101A
:10024800D8A402D0020E4E6E4006D8A04106120075
:10025800010EB96E020E636E8C9A8B9241BE06D067
:1002680041504EE1200E405CD8B0120041BE120051
:10027800415004E1180E405CD8A01200010E402441
:10028800D96E000E4120DA6EDF50336E33502F6E78
:10029800306ADFEC03F0E00E4024D96E000E4120F6
:1002A800DA6EDF50336E33502F6E306AC7EC03F0CE
:1002B8003404D8A40CD01F0E40184110D8A404D080
:1002C800010E4E6E40684168404A412A1200180EDD
:1002D80040184110D8A402D0030E4E6E4006D8A094
:1002E800410612004E50010AD8B4DFD6030AD8B42A
:1002F8001FD7010AD8B464D7070AD8A41200A8D710
:100308001200346E1DD1010EB96E010E636E8C9A07
:100318008B9041BE06D0415003E1100E405CD8B02E
:100328001200A00E4024D96E000E4120DA6EDF5074
:10033800336E33502F6E306ADFEC03F0600E4024CA
:10034800D96E000E4120DA6EDF50336E33502F6EB7
:10035800306AC7EC03F03404D8A40AD00F0E401852
:100368004110D8A402D0020E4E6E404A412A120013
:1003780040504110D8A406D0040E4E6E000E416EB7
:100388003F0E406E4006D8A041061200020EB96E1C
:10039800010E636E8B948B9041BE06D0415003E1F1
:1003A800200E405CD8B0120041BE1200415004E15A
:1003B800100E405CD8A01200A00E4024D96E000E8A
:1003C8004120DA6EDF50336E33502F6E306ADFEC27
:1003D80003F0600E4024D96E000E4120DA6EDF5023
:1003E800336E33502F6E306AC7EC03F03404D8A450
:1003F8000AD01F0E40184110D8A402D0030E4E6E2A
:10040800404A412A1200100E40184110D8A402D0C8
:10041800010E4E6E4006D8A041061200020EB96EBB
:10042800020E636E8B948B9241BE06D0415003E15D
:10043800300E405CD8B0120041BE1200415004E1B9
:10044800200E405CD8A01200A00E4024D96E000EE9
:100458004120DA6EDF50336E33502F6E306ADFEC96
:1004680003F0600E4024D96E000E4120DA6EDF5092
:10047800336E33502F6E306AC7EC03F03404D8A4BF
:100488000AD02F0E40184110D8A402D0040E4E6E88
:10049800404A412A1200200E40184110D8A402D028
:1004A800020E4E6E4006D8A041061200010EB96E2B
:1004B800020E636E8C9A8B9241BE06D041504EE17B
:1004C800400E405CD8B0120041BE1200415004E119
:1004D800300E405CD8A01200A00E4024D96E000E49
:1004E8004120DA6EDF50336E33502F6E306ADFEC06
:1004F80003F0600E4024D96E000E4120DA6EDF5002
:10050800336E33502F6E306AC7EC03F03404D8A42E
:100518000CD03F0E40184110D8A404D0010E4E6EE6
:1005280040684168404A412A1200300E4018411084
:10053800D8A402D0030E4E6E4006D8A04106120081
:100548004E50010AD8B4DFD6030AD8B41FD7010A1F
:10055800D8B464D7070AD8A41200A8D71200061284
:100568001D2A353F49535B636A7075797C7E7E7CB2
:100578007975706A635B53493F352A1D1206061266
:100588001D2A353F49535B636A7075797C7E7E7C92
:100598007975706A635B53493F352A1D12067E7C64
:1005A8007975706A635B53493F352A1D1206061236
:1005B8001D2A353F49535B636A7075797C7E7E7C62
:1005C8007975706A635B53493F352A1D1206061216
:1005D8001D2A353F49535B636A7075797C7E0C220E
:1005E800394D5E6C767D7D766C5E4D39220C0C2221
:1005F800394D5E6C767D7D766C5E4D39220CF7EC5C
:1006080003F0C2EC04F0000E496E000E486E8A8CAE
:10061800F28EF28C0B0E366EB80E356E140E376EE7
:10062800100E386E010E396E41EC03F00009D8B493
:10063800F1D7B9EC04F0C2EC04F04B0E306E1E0E8C
:100648002F6E8AEC04F00B0E366EB80E356E140E53
:10065800376E100E386E000E396E41EC03F000094B
:10066800D8B4F1D7B9EC04F04B0E306E1E0E2F6ED5
:100678008AEC04F0C2EC04F0CDD735503E5C36501D
:100688003F58D8B025D04950D8B41FD03C4A3D2A4D
:1006980037503A6E3B6A3C503A1815E13D503B18CA
:1006A800D8A411D0100E3818D8A404D0395085EC2D
:1006B80001F003D0395057EC00F03E4A3F2A000EB3
:1006C8003D6E000E3C6E000E496E000E476E06D061
:1006D800010E476E000E3F6E000E3E6E4750120030
:1006E800660EF66E050EF76E000EF86E00EE60F000
:1006F80010EEA0F00900F5CFEEFFE550E150FAE169
:10070800F40EF66E080EF76E000EF86E00EE01F0AD
:1007180010EE20F00900F5CFEEFFE550E150FAE1C8
:1007280000EE3CF00E0EEE6AE806FDE14F904F92A7
:10073800000EF86E000103EF03F0000E8D6E000E40
:100748008C6E000E896E000E8A6E000E8B6E070E80
:10075800966EEB0E926EBF0E936EB80E946EDF0E11
:10076800956E380E0F013A6F3E0E0F01396FDF0E8E
:100778000F013B6F030E0F013C6F2B0E0F01386FFB
:100788006168F19E12002FC031F030C032F0D8906D
:1007980032323132D890323231323150676E2FC016
:1007A80031F0030E3116313AF00E31166650CF0B88
:1007B8003110666E12002FC031F030C032F0D89080
:1007C80032323132D890323231323150BE6E2FC08F
:1007D80031F0030E3116313AF00E3116BD50CF0B01
:1007E8003110BD6E1200E3EC04F0A1EC03F0C9EC8B
:1007F80004F00CEC04F034EC04F0AFEC04F098ECEA
:1008080004F046EC04F058EC04F0A4EC04F01200F8
:10081800010E0F014A6F450E0F014B6F000E0F01BD
:100828004C6F7E947D84CE0E2F6E090E306ED0EC08
:1008380004F0DEEC04F01200010E496E010E486E61
:100848004A504B10D8B4120001D812000500FA6EB5
:100858004A50FD6E4B50FE6EF850FF6EFA50120073
:100868003C0E666E000E646E800E656E030E636E3F
:10087800140E676E000E686E0F014951E70B1009E0
:10088800496F12003C0EBD6E000EB66E800EB76E3C
:10089800030EB96E140EBE6E000EBF6E0F014951E5
:1008A800FC0B0209496F1200020EBA6E0C0EBB6EE9
:1008B800000EBC6E9E929D82D00E2F6E090E306E79
:1008C800D5EC04F0E1EC04F012007E944C504D108D
:1008D800D8B4120001D812000500FA6E4C50FD6E13
:1008E8004D50FE6EF850FF6EFA5012007D766C5E29
:1008F8004D39220C0C22394D5E6C767D7D766C5E0E
:100908004D39220C0C22394D5E6C767D06D048504C
:10091800D8B405D02F06D8A03006000E486E2F5048
:100928003010D8B41200F3D7010EC26E000EC16E9B
:10093800050EC06E000EC36E000EC46E9D8C1200B4
:10094800080EB86E900EAB6E240EAC6EA00EAF6E95
:10095800010EB06E1200000E0F01546F000E0F0151
:10096800556F000E0F01566F1200000EB96E000E83
:10097800636E8B948C9A8B928B901200010E4E6E44
:10098800000E416E000E406E1200700ED36E040E03
:10099800D26E000E9B6E12002FC04CF030C04DF08E
:1009A80012002FC04AF030C04BF012009E9220EC8B
:1009B80004F012000F014A851200BA841200D09E7A
:0A09C80012009E9C120012001200A3
:020000040020DA
:08000000FFFFFFFFFFFFFFFF00
:020000040030CA
:0E000000FF281F3CFF9F85FF0FC00FE00F4041
:00000001FF
