:0400000055EF00F0C8
:100008005182FACF21F0FBCF22F0E9CF23F0EACFDB
:1000180024F0E1CF25F0E2CF26F0D9CF27F0DACFD0
:1000280028F0F3CF29F0F4CF2AF0F6CF2BF0F7CF52
:100038002CF0F8CF2DF0F5CF2EF0F2BC9DAC05D00A
:100048009EAC03D099EC05F00ED0F2BC7DA405D08F
:100058007EA403D01DEC05F006D0F2BC9DA203D00F
:100068009EB28EEC05F02EC0F5FF2DC0F8FF2CC017
:10007800F7FF2BC0F6FF2AC0F4FF29C0F3FF28C002
:10008800DAFF27C0D9FF26C0E2FF25C0E1FF24C060
:10009800EAFF23C0E9FF22C0FBFF21C0FAFF51920B
:1000A800110028EF04F0346E1DD1010EB96E010E57
:1000B800636E8C9A8B9043BE06D0435003E1080EC2
:1000C800425CD8B01200010E4224D96E000E4320C3
:1000D800DA6EDF50336E33502F6E306A93EC04F0D3
:1000E800E00E4224D96E000E4320DA6EDF50336EE4
:1000F80033502F6E306A7BEC04F03404D8A40AD055
:10010800070E42184310D8A402D0020E506E424A7D
:10011800432A120042504310D8A406D0040E506E51
:10012800000E436E1F0E426E4206D8A04306120010
:10013800020EB96E010E636E8B948B9043BE06D08F
:10014800435003E1100E425CD8B0120043BE1200C7
:10015800435004E1080E425CD8A01200010E42246C
:10016800D96E000E4320DA6EDF50336E33502F6E97
:10017800306A93EC04F0E00E4224D96E000E43205E
:10018800DA6EDF50336E33502F6E306A7BEC04F03A
:100198003404D8A40AD00F0E42184310D8A402D0B1
:1001A800030E506E424A432A1200080E42184310AA
:1001B800D8A402D0010E506E4206D8A04306120001
:1001C800020EB96E020E636E8B948B9243BE06D0FC
:1001D800435003E1180E425CD8B0120043BE12002F
:1001E800435004E1100E425CD8A01200010E4224D4
:1001F800D96E000E4320DA6EDF50336E33502F6E07
:10020800306A93EC04F0E00E4224D96E000E4320CD
:10021800DA6EDF50336E33502F6E306A7BEC04F0A9
:100228003404D8A40AD0170E42184310D8A402D018
:10023800040E506E424A432A1200100E4218431010
:10024800D8A402D0020E506E4206D8A0430612006F
:10025800010EB96E020E636E8C9A8B9243BE06D065
:1002680043504EE1200E425CD8B0120043BE12004B
:10027800435004E1180E425CD8A01200010E42243B
:10028800D96E000E4320DA6EDF50336E33502F6E76
:10029800306A93EC04F0E00E4224D96E000E43203D
:1002A800DA6EDF50336E33502F6E306A7BEC04F019
:1002B8003404D8A40CD01F0E42184310D8A404D07C
:1002C800010E506E42684368424A432A1200180ED3
:1002D80042184310D8A402D0030E506E4206D8A08C
:1002E800430612005050010AD8B4DFD6030AD8B426
:1002F8001FD7010AD8B464D7070AD8A41200A8D710
:100308001200346E1DD1010EB96E010E636E8C9A07
:100318008B9043BE06D0435003E1100E425CD8B028
:100328001200A00E4224D96E000E4320DA6EDF5070
:10033800336E33502F6E306A93EC04F0600E422413
:10034800D96E000E4320DA6EDF50336E33502F6EB5
:10035800306A7BEC04F03404D8A40AD00F0E42189B
:100368004310D8A402D0020E506E424A432A12000B
:1003780042504310D8A406D0040E506E000E436EAF
:100388003F0E426E4206D8A043061200020EB96E16
:10039800010E636E8B948B9043BE06D0435003E1ED
:1003A800200E425CD8B0120043BE1200435004E154
:1003B800100E425CD8A01200A00E4224D96E000E86
:1003C8004320DA6EDF50336E33502F6E306A93EC71
:1003D80004F0600E4224D96E000E4320DA6EDF501E
:1003E800336E33502F6E306A7BEC04F03404D8A49B
:1003F8000AD01F0E42184310D8A402D0030E506E24
:10040800424A432A1200100E42184310D8A402D0C0
:10041800010E506E4206D8A043061200020EB96EB5
:10042800020E636E8B948B9243BE06D0435003E159
:10043800300E425CD8B0120043BE1200435004E1B3
:10044800200E425CD8A01200A00E4224D96E000EE5
:100458004320DA6EDF50336E33502F6E306A93ECE0
:1004680004F0600E4224D96E000E4320DA6EDF508D
:10047800336E33502F6E306A7BEC04F03404D8A40A
:100488000AD02F0E42184310D8A402D0040E506E82
:10049800424A432A1200200E42184310D8A402D020
:1004A800020E506E4206D8A043061200010EB96E25
:1004B800020E636E8C9A8B9243BE06D043504EE177
:1004C800400E425CD8B0120043BE1200435004E113
:1004D800300E425CD8A01200A00E4224D96E000E45
:1004E8004320DA6EDF50336E33502F6E306A93EC50
:1004F80004F0600E4224D96E000E4320DA6EDF50FD
:10050800336E33502F6E306A7BEC04F03404D8A479
:100518000CD03F0E42184310D8A404D0010E506EE0
:1005280042684368424A432A1200300E4218431078
:10053800D8A402D0030E506E4206D8A0430612007B
:100548005050010AD8B4DFD6030AD8B41FD7010A1D
:10055800D8B464D7070AD8A41200A8D71200ABEC05
:1005680004F076EC05F0000E4B6E000E4A6E8A8C95
:100578000A0E396E070E3D6ED00E3C6E100E3A6EA6
:10058800F28EF28C010E3B6E3AC037F03BC038F069
:10059800395069EC03F03CC000F13DC001F139C0AD
:1005A80002F13AC003F13BC004F1EFEC03F000099B
:1005B800D8B4F1D73AC037F03BC038F03950AFEC77
:1005C80003F06DEC05F076EC05F04B0E306E1E0E68
:1005D8002F6E3EEC05F0000E3B6E3AC037F03BC084
:1005E80038F0395069EC03F03CC000F13DC001F12E
:1005F80039C002F13AC003F13BC004F1EFEC03F05B
:100608000009D8B4F1D73AC037F03BC038F03950B8
:10061800AFEC03F06DEC05F04B0E306E1E0E2F6E36
:100628003EEC05F076EC05F0ADD706121D2A353FF5
:1006380049535B636A7075797C7E7E7C7975706AD4
:10064800635B53493F352A1D120606121D2A353FA2
:1006580049535B636A7075797C7E7E7C7975706AB4
:10066800635B53493F352A1D12067E7C7975706A93
:10067800635B53493F352A1D120606121D2A353F72
:1006880049535B636A7075797C7E7E7C7975706A84
:10069800635B53493F352A1D120606121D2A353F52
:1006A80049535B636A7075797C7E0C22394D5E6CA8
:1006B800767D7D766C5E4D39220C0C22394D5E6C50
:1006C800767D7D766C5E4D39220C0101056F080E32
:1006D8003718D8A41ED01E0E0101066F13D0000EC5
:1006E8000101016F050E006F06C102F1080E01013C
:1006F800036F38C004F1EFEC03F00009D8B4EFD76A
:1007080001010607010106510101055DD8B012007B
:10071800E6D7100E3718D8A412001E0E0101066F76
:1007280013D0000E0101016F050E006F06C102F122
:10073800100E0101036F38C004F1EFEC03F000095B
:10074800D8B4EFD701010607010106510101055D83
:10075800D8B01200E6D70101056F080E3718D8A4E3
:100768001BD005C106F11D0E0101066501D012005E
:10077800000E0101016F050E006F06C102F1080E9F
:100788000101036F38C004F1EFEC03F00009D8B49D
:10079800EFD70101062BE7D7100E3718D8A412009F
:1007A80005C106F11D0E0101066501D01200000EFB
:1007B8000101016F050E006F06C102F1100E010163
:1007C800036F38C004F1EFEC03F00009D8B4EFD799
:1007D8000101062BE7D701010051405C01010151DD
:1007E8004158D8B029D04B50D8B423D03E4A3F2ADC
:1007F80001010251356E366A3E50351818E13F50F6
:100808003618D8A414D0100E01010319D8A405D0A5
:100818000101045185EC01F004D00101045157ECA9
:1008280000F0404A412A000E3F6E000E3E6E000E58
:100838004B6E000E496E06D0010E496E000E416ED9
:10084800000E406E49501200320EF66E060EF76E1C
:10085800000EF86E00EE60F010EEA0F00900F5CF83
:10086800EEFFE550E150FAE15C0EF66E0A0EF76E07
:10087800000EF86E00EE01F010EE20F00900F5CF42
:10088800EEFFE550E150FAE100EE39F0130EEE6AA2
:10089800E806FDE151905192000EF86E0001B3EFA9
:1008A80002F0000E8D6E000E8C6E000E896E000E2A
:1008B8008A6E000E8B6E070E966EEB0E926EBF0E52
:1008C800936EB80E946EDF0E956E380E0F013A6F68
:1008D8003E0E0F01396FDF0E0F013B6F030E0F0144
:1008E8003C6F2B0E0F01386F6168F19E12002FC00C
:1008F80031F030C032F0D89032323132D8903232C2
:1009080031323150676E2FC031F0030E3116313A53
:10091800F00E31166650CF0B3110666E12002FC0E4
:1009280031F030C032F0D89032323132D890323291
:1009380031323150BE6E2FC031F0030E3116313ACC
:10094800F00E3116BD50CF0B3110BD6E120097EC72
:1009580005F055EC04F07DEC05F0C0EC04F0E8EC93
:1009680004F063EC05F04CEC05F0FAEC04F00CEC48
:1009780005F058EC05F01200010E0F014A6F450E04
:100988000F014B6F000E0F014C6F7E947D84360E65
:100998002F6E0B0E306E84EC05F092EC05F0120011
:1009A800010E4B6E010E4A6E4C504D10D8B4120019
:1009B80001D812000500FA6E4C50FD6E4D50FE6EC7
:1009C800F850FF6EFA5012003C0E666E000E646E10
:1009D800800E656E030E636E140E676E000E686EF1
:1009E8000F014951E70B1009496F12003C0EBD6E0B
:1009F800000EB66E800EB76E030EB96E140EBE6E84
:100A0800000EBF6E0F014951FC0B0209496F12001D
:100A1800020EBA6E0C0EBB6E000EBC6E9E929D82CC
:100A2800380E2F6E0B0E306E89EC05F095EC05F044
:100A380012007E944E504F10D8B4120001D8120004
:100A48000500FA6E4E50FD6E4F50FE6EF850FF6E68
:100A5800FA5012007D766C5E4D39220C0C22394D0D
:100A68005E6C767D7D766C5E4D39220C0C22394D9C
:100A78005E6C767D06D04A50D8B405D02F06D8A033
:100A88003006000E4A6E2F503010D8B41200F3D73B
:100A9800010EC26E000EC16E050EC06E000EC36E52
:100AA800000EC46E9D8C1200080EB86E900EAB6ED0
:100AB800240EAC6EA00EAF6E010EB06E1200000ECA
:100AC8000F01546F000E0F01556F000E0F01566F86
:100AD8001200000EB96E000E636E8B948C9A8B9286
:100AE8008B901200010E506E000E436E000E426E87
:100AF8001200700ED36E040ED26E000E9B6E1200A2
:100B08002FC04EF030C04FF012002FC04CF030C054
:100B18004DF012009E92D4EC04F012000F014A85A9
:100B28001200BA841200D09E12009E9C120012007D
:020B38001200A9
:020000040020DA
:08000000FFFFFFFFFFFFFFFF00
:020000040030CA
:0E000000FF281F3CFF9F85FF0FC00FE00F4041
:00000001FF
