:0400000055EF00F0C8
:100008004E82FACF01F0FBCF02F0E9CF03F0EACF3E
:1000180004F0E1CF05F0E2CF06F0D9CF07F0DACF50
:1000280008F0F3CF09F0F4CF0AF0F6CF0BF0F7CFD2
:100038000CF0F8CF0DF0F5CF0EF0F2BC9DAC05D06A
:100048009EAC03D0E1EC06F00ED0F2BC7DA405D046
:100058007EA403D088EC06F006D0F2BC9DA203D0A3
:100068009EB2D6EC06F00EC0F5FF0DC0F8FF0CC02E
:10007800F7FF0BC0F6FF0AC0F4FF09C0F3FF08C082
:10008800DAFF07C0D9FF06C0E2FF05C0E1FF04C0E0
:10009800EAFF03C0E9FF02C0FBFF01C0FAFF4E926E
:1000A800110010EF05F097D1000EB96E000E636EC7
:1000B8008B948C9A8B928B90010E4D6E1200010ED0
:1000C800B96E010E636E8C9A8B904750800A780F38
:1000D800D8B01200000EAAEC05F00FC032F010C024
:1000E80033F0010EAAEC05F00FC034F010C035F063
:1000F80032C026F033C027F04750010DC00EF3245C
:10010800D96E000EF420DA6EDF508EEC04F0366EF5
:1001180034C026F035C027F04750010DA00EF32457
:10012800D96E000EF420DA6EDF5041EC04F0376E21
:100138004750010DC00EF324D96E000EF420DA6E7C
:1001480036C0DFFF4750010DA00EF324D96E000E14
:10015800F420DA6E37C0DFFF36C00FF0106ADAEC31
:1001680005F037C00FF0106AC2EC05F0070E47180B
:10017800D8A402D0020E4D6E472A1200020EB96EA4
:10018800010E636E8B948B904750800A700FD8B025
:1001980012004750800A780FD8A01200000EAAEC6F
:1001A80005F00FC032F010C033F0010EAAEC05F0D4
:1001B8000FC034F010C035F032C026F033C027F03D
:1001C8004750010DC00EF324D96E000EF420DA6EEC
:1001D800DF508EEC04F0366E34C026F035C027F0C0
:1001E8004750010DA00EF324D96E000EF420DA6EEC
:1001F800DF5041EC04F0376E4750010DC00EF32478
:10020800D96E000EF420DA6E36C0DFFF4750010DBC
:10021800A00EF324D96E000EF420DA6E37C0DFFF8B
:1002280036C00FF0106ADAEC05F037C00FF0106A2C
:10023800C2EC05F00F0E4718D8A402D0030E4D6E7D
:10024800472A1200020EB96E020E636E8B948B92CF
:100258004750800A680FD8B012004750800A700FC4
:10026800D8A01200000EAAEC05F00FC032F010C0A2
:1002780033F0010EAAEC05F00FC034F010C035F0D1
:1002880032C026F033C027F04750010DC00EF324CA
:10029800D96E000EF420DA6EDF508EEC04F0366E64
:1002A80034C026F035C027F04750010DA00EF324C6
:1002B800D96E000EF420DA6EDF5041EC04F0376E90
:1002C8004750010DC00EF324D96E000EF420DA6EEB
:1002D80036C0DFFF4750010DA00EF324D96E000E83
:1002E800F420DA6E37C0DFFF36C00FF0106ADAECA0
:1002F80005F037C00FF0106AC2EC05F0170E47186A
:10030800D8A402D0040E4D6E472A1200010EB96E11
:10031800020E636E8C9A8B924750800A600FD8B099
:1003280012004750800A680FD8A01200000EAAECED
:1003380005F00FC032F010C033F0010EAAEC05F042
:100348000FC034F010C035F032C026F033C027F0AB
:100358004750010DC00EF324D96E000EF420DA6E5A
:10036800DF508EEC04F0366E34C026F035C027F02E
:100378004750010DA00EF324D96E000EF420DA6E5A
:10038800DF5041EC04F0376E4750010DC00EF324E6
:10039800D96E000EF420DA6E36C0DFFF4750010D2B
:1003A800A00EF324D96E000EF420DA6E37C0DFFFFA
:1003B80036C00FF0106ADAEC05F037C00FF0106A9B
:1003C800C2EC05F01F0E4718D8A403D0000E4D6EDE
:1003D8004768472A12004D50000AD8B465D6010A6A
:1003E800D8B46DD6030AD8B4C9D6010AD8B42AD766
:1003F800070AD8A412008AD7EBD0000EB96E000EF7
:10040800636E8B948C9A8B928B90010E4D6E1200BA
:10041800010EB96E010E636E8C9A8B904750800A5C
:10042800700FD8B012004750C1EC06F04750010DCC
:10043800600EF324D96E000EF420DA6EDF50136ECE
:1004480013500F6E106ADAEC05F04750010D000EDC
:10045800F324D96E010EF420DA6EDF50136E1350B8
:100468000F6E106AC2EC05F00F0E4718D8A402D020
:10047800020E4D6E472A1200020EB96E010E636E0F
:100488008B948B904750800A600FD8B01200475069
:10049800800A700FD8A012004750C1EC06F04750F0
:1004A800010D600EF324D96E000EF420DA6EDF50D1
:1004B800136E13500F6E106ADAEC05F04750010DF9
:1004C800000EF324D96E010EF420DA6EDF50136E9D
:1004D80013500F6E106AC2EC05F01F0E4718D8A40F
:1004E80002D0030E4D6E472A1200020EB96E020E9C
:1004F800636E8B948B924750800A500FD8B01200CD
:100508004750800A600FD8A012004750C1EC06F08F
:100518004750010D600EF324D96E000EF420DA6EF8
:10052800DF50136E13500F6E106ADAEC05F0475067
:10053800010D000EF324D96E010EF420DA6EDF509F
:10054800136E13500F6E106AC2EC05F02F0E471889
:10055800D8A402D0040E4D6E472A1200010EB96EBF
:10056800020E636E8C9A8B924750800A400FD8B067
:1005780012004750800A500FD8A012004750C1EC13
:1005880006F04750010D600EF324D96E000EF420DA
:10059800DA6EDF50136E13500F6E106ADAEC05F046
:1005A8004750010D000EF324D96E010EF420DA6EC7
:1005B800DF50136E13500F6E106AC2EC05F03F0E39
:1005C8004718D8A403D0000E4D6E4768472A12007A
:1005D8004D50000AD8B411D7010AD8B419D7030A64
:1005E800D8B44AD7010AD8B480D7070AD8A41200C9
:1005F800B5D711C013F0146A156A1034133601E325
:10060800148013501D6E1D50D8A409D0000E0F6E13
:10061800000E106E000E116E000E126E1200170EF4
:10062800136E0FC014F010C015F011C016F0132887
:10063800176E04D0D890163215321432172EFAD706
:100648001450186E108EFF0E0F16FF0E1016000EA7
:1006580011160F50196E10501A6E11501B6E1C6A2D
:100668008E0E1D5E1DAE16D01D50800A8F0FD8B09D
:1006780009D0000E0F6E000E106E000E116E000EE7
:10068800126E1200D8901C321B321A3219321D3EDB
:10069800F9D715D0170E1D640FD0000E0F6E000E7F
:1006A800106E000E116E000E126E1200D8901936E0
:1006B8001A361B361C361D061D50D8A4F7D71850FD
:1006C800D8B408D01C1E1B1E1A1E196C000E1A2244
:1006D8001B221C2219C00FF01AC010F01BC011F009
:1006E8001CC012F0120019C01DF01E6A1F6A1834CF
:1006F8001D3601E31E801D50246E2450D8A407D057
:10070800000E176E000E186E000E196E12001CC037
:100718001DF01E6A1F6A1B341D3601E31E801D5022
:10072800256E2550D8A407D0000E176E000E186E3F
:10073800000E196E1200000E216E000E226E000EC1
:10074800236E2550890F245E19C025F01C50251AE8
:10075800800E2516188EFF0E1716FF0E1816000E9F
:1007680019161B8EFF0E1A16FF0E1B16000E1C16EE
:10077800180E206ED8902136223623361A50175C70
:100788001B5018581C501958D8A007D01A50175E7B
:100798001B50185A1C50195A2180D89017361836F1
:1007A8001936202EE7D721C00FF022C010F023C041
:1007B80011F024C012F025C013F0EAEC03F00FC0CA
:1007C80017F010C018F011C019F012001250D8B468
:1007D80005D00F5010101110D8A40CD0000E0F6EB9
:1007E800000E106E000E116E1200122AD8901132EF
:1007F80010320F32000E0F14146E000E1014156E06
:10080800FE0E1114166E145015101610D8B40CD014
:10081800ECD7122A010E0F26000E1022000E11220C
:10082800D890113210320F32000E0F14146E000ED1
:100838001014156EFF0E1114166E145015101610A4
:10084800D8B406D0E6D71206D8900F36103611362F
:1008580010BE03D0020E1260F6D712A0109ED890D8
:100868001232125011121350D8A4118E0FC00FF06B
:1008780010C010F011C011F01200316E26C017F030
:1008880027C018F02FEC06F017C029F018C02AF07E
:1008980019C02BF029C017F02AC018F02BC019F086
:1008A800800E1A6E800E1B6E430E1C6E77EC03F0E2
:1008B80017C02DF018C02EF019C02FF02DC00FF062
:1008C8002EC010F02FC011F0FDEC02F00F50C1EC5B
:1008D80006F031500008286E2DC00FF02EC010F021
:1008E8002FC011F0FDEC02F00F502824306E30506C
:1008F800800A820FD8B002D0312806D03050800A42
:100908007D0FD8A003D031042C6E02D031C02CF05A
:100918002C501200316E26C017F027C018F02FECAB
:1009280006F017C02CF018C02DF019C02EF02CC0FE
:1009380017F02DC018F02EC019F0800E1A6E800E18
:100948001B6E430E1C6E77EC03F017C029F018C01D
:100958002AF019C02BF031500008286E29C00FF07A
:100968002AC010F02BC011F0FDEC02F00F50282423
:10097800306E3050800A810FD8B002D0312806D0AE
:100988003050800A7E0FD8A003D031042F6E02D0D9
:1009980031C02FF02F501200FEFAF4ECE2D6C8B89E
:1009A800A6937F6A533C240C0C243C536A7F93A67D
:1009B800B8C8D6E2ECF4FAFEFEFAF4ECE2D6C8B80F
:1009C800A6937F6A533C240C0C243C536A7F93A65D
:1009D800B8C8D6E2ECF4FAFE18457199BCD8EDFA1D
:1009E800FAEDD8BC9971451818457199BCD8EDFA3B
:1009F800FAEDD8BC99714518FAEDD8BC997145182B
:100A080018457199BCD8EDFAFAEDD8BC997145181A
:100A180018457199BCD8EDFA140EF66E0B0EF76EE8
:100A2800000EF86E01EE00F010EE40F00900F5CF70
:100A3800EEFFE550E150FAE1A00EF66E090EF76EF2
:100A4800000EF86E00EE60F010EE80F00900F5CFB1
:100A5800EEFFE550E150FAE100EE3EF00B0EEE6AD3
:100A6800E806FDE14E904E92000EF86E000107EF89
:100A780006F03850405C39504158D8B01200485000
:100A8800D8B412003E4A3F2A3A503C6E3D6A3E5066
:100A98003C1813E13F503D18D8A40FD0100E3B1856
:100AA800D8A403D000EC02F002D057EC00F0404A82
:100AB800412A000E3F6E000E3E6E000E486E120078
:100AC800000E8D6E000E8C6E000E896E000E8A6E02
:100AD800000E8B6E070E966EEB0E926EBF0E936E27
:100AE800B80E946EDF0E956E380E0F013A6F3E0EFB
:100AF8000F01396FDF0E0F013B6F030E0F013C6FC3
:100B08002B0E0F01386F6168F19E12000C243C53C4
:100B18006A7F93A6B8C8D6E2ECF4FAFEFEFAF4ECC3
:100B2800E2D6C8B8A6937F6A533C240C0C243C53E5
:100B38006A7F93A6B8C8D6E2ECF4FAFEFEFAF4ECA3
:100B4800E2D6C8B8A6937F6A533C240C136E13C030
:100B580011F011461146C2501118830B1118C26EBC
:100B6800C280C282C2B2FED7C450126E116AC3508C
:100B780011240F6E000E1220106E12000FC011F01B
:100B880010C012F0D89012321132D89012321132AD
:100B98001150676E0FC011F0030E1116113AF00EC6
:100BA80011166650CF0B1110666E12000FC011F0AF
:100BB80010C012F0D89012321132D890123211327D
:100BC8001150BE6E0FC011F0030E1116113AF00E3F
:100BD8001116BD50CF0B1110BD6E1200DFEC06F0E0
:100BE80064EC05F0BAEC06F01BEC06F041EC06F0FC
:100BF800B0EC06F099EC06F053EC06F077EC06F052
:100C0800A5EC06F01200F2EC05F0C7EC06F0000EB9
:100C1800486E8A8CF28EF28C0B0E396EB80E386ED6
:100C2800010E3A6E100E3B6E3DEC05F0F5D7010E45
:100C38000F014A6F3C0E0F014B6F000E0F014C6FF6
:100C48007E947D84C60E0F6E0D0E106ECCEC06F0F1
:100C5800DAEC06F0120017C00FF018C010F0116A95
:100C68008E0E126E000E136EEAEC03F00FC017F032
:100C780010C018F011C019F012000C0E666E000EAC
:100C8800646E800E656E030E636E0C0E676E000E4A
:100C9800686E0F014951E70B1009496F12000C0EDD
:100CA800BD6E000EB66E800EB76E030EB96E0C0EDA
:100CB800BE6E000EBF6E0F014951FC0B0209496F51
:100CC8001200010E486E49504A10D8B4120001D8DB
:100CD80012000500FA6E4950FD6E4A50FE6EF8503B
:100CE800FF6EFA501200080EBA6EF90EBB6E4E0E69
:100CF800BC6E9E929D82C80E0F6E0D0E106ED1ECCA
:100D080006F0DDEC06F012007E944B504C10D8B47F
:100D1800120001D812000500FA6E4B50FD6E4C50BF
:100D2800FE6EF850FF6EFA501200010EC26E000EF1
:100D3800C16E050EC06E000EC36E000EC46E9D8C93
:100D48001200080EB86E900EAB6E240EAC6EA00E9C
:100D5800AF6E010EB06E1200000E0F01546F000E40
:100D68000F01556F000E0F01566F1200700ED36EF3
:100D7800040ED26E000E9B6E12000F6E9EA8FED758
:100D88000FC0ADFF1200010E4D6E000E476E12002F
:100D98000FC04BF010C04CF012000FC049F010C04B
:100DA8004AF012009E9265EC06F012000F014A8587
:100DB8001200BA841200D09E12009E9C12001200EB
:020DC800120017
:020000040020DA
:08000000FFFFFFFFFFFFFFFF00
:020000040030CA
:0E000000FF281F3CFF9F85FF0FC00FE00F4041
:00000001FF
