:0400000055EF00F0C8
:100008004B82FACF21F0FBCF22F0E9CF23F0EACFE1
:1000180024F0E1CF25F0E2CF26F0D9CF27F0DACFD0
:1000280028F0F3CF29F0F4CF2AF0F6CF2BF0F7CF52
:100038002CF0F8CF2DF0F5CF2EF0F2BC9DAC05D00A
:100048009EAC03D069EC06F00ED0F2BC7DA405D0BE
:100058007EA403D000EC06F006D0F2BC9DA203D02B
:100068009EB25EEC06F02EC0F5FF2DC0F8FF2CC046
:10007800F7FF2BC0F6FF2AC0F4FF29C0F3FF28C002
:10008800DAFF27C0D9FF26C0E2FF25C0E1FF24C060
:10009800EAFF23C0E9FF22C0FBFF21C0FAFF4B9211
:1000A8001100CCEF04F0F3D0000EB96E000E636EB1
:1000B8008B948C9A8B928B90010E4A6E1200010ED3
:1000C800B96E010E636E8C9A8B904450800A700F43
:1000D800D8B01200445049EC06F0F9EC04F0445052
:1000E800010DA00EF324D96E000EF420DA6EDF5055
:1000F800336E33502F6E306A62EC05F04450010DB8
:10010800600EF324D96E000EF420DA6EDF50336EE1
:1001180033502F6E306A4AEC05F04450D8A404D00E
:10012800040E4A6E3F0E446E44061200020EB96E6B
:10013800010E636E8B948B90F9EC04F04450800AA6
:10014800600FD8B012004450800A700FD8A0120077
:10015800445049EC06F04450010DA00EF324D96E2A
:10016800000EF420DA6EDF50336E33502F6E306A93
:1001780062EC05F04450010D600EF324D96E000EB8
:10018800F420DA6EDF50336E33502F6E306A4AEC4B
:1001980005F0100E4418D8A402D0010E4A6E440689
:1001A8001200020EB96E020E636E8B948B92F9ECFC
:1001B80004F04450800A500FD8B012004450800A0E
:1001C800600FD8A01200445049EC06F04450010DCD
:1001D800A00EF324D96E000EF420DA6EDF50336ED1
:1001E80033502F6E306A62EC05F04450010D600EFA
:1001F800F324D96E000EF420DA6EDF50336E3350DC
:100208002F6E306A4AEC05F0200E4418D8A402D0AC
:10021800020E4A6E44061200010EB96E020E636E9B
:100228008C9A8B924450800A400FD8B012004450E8
:10023800800A500FD8A01200445049EC06F04450F0
:10024800010DA00EF324D96E000EF420DA6EDF50F3
:10025800336E33502F6E306A62EC05F04450010D56
:10026800600EF324D96E000EF420DA6EDF50336E80
:1002780033502F6E306A4AEC05F0300E4418D8A47B
:1002880004D0000E4A6E030E4A6E440612004A500D
:10029800000AD8B409D7010AD8B411D7030AD8B4C8
:1002A80045D7010AD8B47DD7070AD8A41200B4D715
:1002B800E7D0000EB96E000E636E8B948C9A8B9209
:1002C8008B90010E4A6E1200010EB96E010E636E1C
:1002D8008C9A8B904450800A780FD8B01200F9ECB1
:1002E80004F04450010D010EF324D96E000EF420E1
:1002F800DA6EDF50336E33502F6E306A62EC05F0E1
:100308004450010DE00EF324D96E000EF420DA6E8D
:10031800DF50336E33502F6E306A4AEC05F044508C
:10032800D8A404D0040E4A6E1F0E446E4406120070
:10033800020EB96E010E636E8B948B90F9EC04F08B
:100348004450800A700FD8B012004450800A780FC9
:10035800D8A012004450010D010EF324D96E000EEE
:10036800F420DA6EDF50336E33502F6E306A62EC51
:1003780005F04450010DE00EF324D96E000EF42070
:10038800DA6EDF50336E33502F6E306A4AEC05F068
:10039800080E4418D8A402D0010E4A6E4406120072
:1003A800020EB96E020E636E8B948B92F9EC04F018
:1003B8004450800A680FD8B012004450800A700F69
:1003C800D8A012004450010D010EF324D96E000E7E
:1003D800F420DA6EDF50336E33502F6E306A62ECE1
:1003E80005F04450010DE00EF324D96E000EF42000
:1003F800DA6EDF50336E33502F6E306A4AEC05F0F8
:10040800100E4418D8A402D0020E4A6E44061200F8
:10041800010EB96E020E636E8C9A8B924450800A5C
:10042800600FD8B012004450800A680FD8A012009C
:100438004450010D010EF324D96E000EF420DA6E3B
:10044800DF50336E33502F6E306A62EC05F0445043
:10045800010DE00EF324D96E000EF420DA6EDF50A1
:10046800336E33502F6E306A4AEC05F0180E44187C
:10047800D8A404D0000E4A6E030E4A6E4406120039
:100488004A50000AD8B415D7010AD8B41DD7030AB0
:10049800D8B44ED7010AD8B483D7070AD8A4120013
:1004A800B7D7E7D0000EB96E000E636E8B948C9AA6
:1004B8008B928B90010E4A6E1200010EB96E010EDE
:1004C800636E8C9A8B904450800A780FD8B01200D3
:1004D800F9EC04F04450010D010EF324D96E000E1E
:1004E800F420DA6EDF50336E33502F6E306A62ECD0
:1004F80005F04450010DE00EF324D96E000EF420EF
:10050800DA6EDF50336E33502F6E306A4AEC05F0E6
:10051800070E4418D8A402D0020E4A6E442A1200CC
:10052800020EB96E010E636E8B948B904450800A54
:10053800700FD8B012004450800A780FD8A012006B
:10054800F9EC04F04450010D010EF324D96E000EAD
:10055800F420DA6EDF50336E33502F6E306A62EC5F
:1005680005F04450010DE00EF324D96E000EF4207E
:10057800DA6EDF50336E33502F6E306A4AEC05F076
:100588000F0E4418D8A402D0030E4A6E442A120053
:10059800020EB96E020E636E8B948B924450800AE1
:1005A800680FD8B012004450800A700FD8A012000B
:1005B800F9EC04F04450010D010EF324D96E000E3D
:1005C800F420DA6EDF50336E33502F6E306A62ECEF
:1005D80005F04450010DE00EF324D96E000EF4200E
:1005E800DA6EDF50336E33502F6E306A4AEC05F006
:1005F800170E4418D8A402D0040E4A6E442A1200DA
:10060800010EB96E020E636E8C9A8B924450800A6A
:10061800600FD8B012004450800A680FD8A01200AA
:10062800F9EC04F04450010D010EF324D96E000ECC
:10063800F420DA6EDF50336E33502F6E306A62EC7E
:1006480005F04450010DE00EF324D96E000EF4209D
:10065800DA6EDF50336E33502F6E306A4AEC05F095
:100668001F0E4418D8A403D0010E4A6E4468442AC9
:1006780012004A50000AD8B415D7010AD8B41DD7B9
:10068800030AD8B44DD7010AD8B482D7070AD8A428
:100698001200B6D7E5D0000EB96E000E636E8B94CB
:1006A8008C9A8B928B90010E4A6E1200010EB96ED5
:1006B800010E636E8C9A8B904450800A700FD8B0EC
:1006C8001200F9EC04F04450010DA00EF324D96E89
:1006D800000EF420DA6EDF50336E33502F6E306A1E
:1006E80062EC05F04450010D600EF324D96E000E43
:1006F800F420DA6EDF50336E33502F6E306A4AECD6
:1007080005F00F0E4418D8A402D0020E4A6E442AEF
:100718001200020EB96E010E636E8B948B90F9EC89
:1007280004F04450800A600FD8B012004450800A88
:10073800700FD8A012004450010DA00EF324D96EFA
:10074800000EF420DA6EDF50336E33502F6E306AAD
:1007580062EC05F04450010D600EF324D96E000ED2
:10076800F420DA6EDF50336E33502F6E306A4AEC65
:1007780005F01F0E4418D8A402D0030E4A6E442A6E
:100788001200020EB96E020E636E8B948B92F9EC16
:1007980004F04450800A500FD8B012004450800A28
:1007A800600FD8A012004450010DA00EF324D96E9A
:1007B800000EF420DA6EDF50336E33502F6E306A3D
:1007C80062EC05F04450010D600EF324D96E000E62
:1007D800F420DA6EDF50336E33502F6E306A4AECF5
:1007E80005F02F0E4418D8A402D0040E4A6E442AED
:1007F8001200010EB96E020E636E8C9A8B924450F1
:10080800800A400FD8B012004450800A500FD8A078
:1008180012004450010DA00EF324D96E000EF420EE
:10082800DA6EDF50336E33502F6E306A62EC05F0AB
:100838004450010D600EF324D96E000EF420DA6ED8
:10084800DF50336E33502F6E306A4AEC05F03F0E9E
:100858004418D8A403D0010E4A6E4468442A1200F2
:100868004A50000AD8B417D7010AD8B41FD7030AC8
:10087800D8B44FD7010AD8B484D7070AD8A412002D
:10088800B8D706121D2A353F49535B636A707579DC
:100898007C7E7E7C7975706A635B53493F352A1D7F
:1008A800120606121D2A353F49535B636A70757933
:1008B8007C7E7E7C7975706A635B53493F352A1D5F
:1008C80012067E7C7975706A635B53493F352A1D31
:1008D800120606121D2A353F49535B636A70757903
:1008E8007C7E7E7C7975706A635B53493F352A1D2F
:1008F800120606121D2A353F49535B636A707579E3
:100908007C7E0C22394D5E6C767D7D766C5E4D3931
:10091800220C0C22394D5E6C767D7D766C5E4D39ED
:10092800220C34503D5C35503E58D8B0120045502A
:10093800D8B412003B4A3C2A3650396E3A6A3B50CA
:10094800391823E13C503A18D8A41FD03804D8A449
:100958000AD0100E3718D8A403D04EEC03F00FD0ED
:1009680055EC02F00CD03850D8A409D0100E371826
:10097800D8A403D057EC00F002D05CEC01F03D4A5B
:100988003E2A000E3C6E000E3B6E000E456E1200B5
:100998008A0EF66E080EF76E000EF86E00EE60F026
:1009A80010EEA0F00900F5CFEEFFE550E150FAE1B6
:1009B800220EF66E0C0EF76E000EF86E00EE01F0C9
:1009C80010EE20F00900F5CFEEFFE550E150FAE116
:1009D80000EE3BF00B0EEE6AE806FDE14B904B9201
:1009E800000EF86E00017AEF05F04450010D010E7B
:1009F800F324D96E000EF420DA6E6A0EDF640AD092
:100A08004450010D010EF324D96E000EF420DA6E65
:100A18006A0EDF6E4450010DE00EF324D96E000E0D
:100A2800F420DA6E6A0EDF6412004450010DE00E05
:100A3800F324D96E000EF420DA6E6A0EDF6E12000F
:100A4800000E8D6E000E8C6E000E896E000E8A6E82
:100A5800000E8B6E070E966EEB0E926EBF0E936EA7
:100A6800B80E946EDF0E956E380E0F013A6F3E0E7B
:100A78000F01396FDF0E0F013B6F030E0F013C6F43
:100A88002B0E0F01386F6168F19E12002FC031F0F4
:100A980030C032F0D89032323132D89032323132DE
:100AA8003150676E2FC031F0030E3116313AF00E17
:100AB80031166650CF0B3110666E12002FC031F020
:100AC80030C032F0D89032323132D89032323132AE
:100AD8003150BE6E2FC031F0030E3116313AF00E90
:100AE8003116BD50CF0B3110BD6E120090EC05F0E1
:100AF8004FEC06F0000E456E8A8CF28EF28C0B0ECF
:100B0800356EB80E346E010E366E100E376E000E4E
:100B1800386E95EC04F0F3D767EC06F024EC05F09A
:100B280042EC06F0A5EC05F0B9EC05F038EC06F05F
:100B380021EC06F0CBEC05F0EFEC05F02DEC06F01F
:100B48001200010E0F014A6F450E0F014B6F000E88
:100B58000F014C6F7E947D84D60E2F6E0C0E306E76
:100B680054EC06F062EC06F012003C0E666E000EC5
:100B7800646E800E656E030E636E140E676E000E53
:100B8800686E0F014951E70B1009496F12003C0EBE
:100B9800BD6E000EB66E800EB76E030EB96E140EE3
:100BA800BE6E000EBF6E0F014951FC0B0209496F62
:100BB8001200010E456E46504710D8B4120001D8F5
:100BC80012000500FA6E4650FD6E4750FE6EF85052
:100BD800FF6EFA501200020EBA6E0C0EBB6E000EBB
:100BE800BC6E9E929D82D80E2F6E0C0E306E59EC04
:100BF80006F065EC06F012007E9448504910D8B40F
:100C0800120001D812000500FA6E4850FD6E4950D6
:100C1800FE6EF850FF6EFA5012007D766C5E4D390C
:100C2800220C0C22394D5E6C767D7D766C5E4D39DA
:100C3800220C0C22394D5E6C767D010EC26E000EC0
:100C4800C16E050EC06E000EC36E000EC46E9D8C84
:100C58001200080EB86E900EAB6E240EAC6EA00E8D
:100C6800AF6E010EB06E1200000E0F01546F000E31
:100C78000F01556F000E0F01566F1200700ED36EE4
:100C8800040ED26E000E9B6E12002F6E9EA8FED729
:100C98002FC0ADFF1200010E4A6E000E446E120006
:100CA8002FC048F030C049F012002FC046F030C0C5
:100CB80047F012009E92DDEC05F012000F014A8504
:100CC8001200BA841200D09E12009E9C12001200DC
:020CD800120008
:020000040020DA
:08000000FFFFFFFFFFFFFFFF00
:020000040030CA
:0E000000FF281F3CFF9F85FF0FC00FE00F4041
:00000001FF
